:020000040800F2
:1000000058430020990100084F3C00086F2C00085D
:100010004D3C0008AF09000815430008000000002F
:1000200000000000000000000000000001010008C6
:10003000510E00080000000045010008133F0008B1
:10004000B3010008B3010008B3010008B3010008C0
:10005000B3010008B3010008B3010008B3010008B0
:10006000B3010008B3010008B3010008B3010008A0
:10007000B3010008B3010008B3010008B301000890
:10008000B3010008B3010008B3010008B301000880
:10009000B3010008B3010008B3010008B301000870
:1000A000B3010008B3010008B3010008B301000860
:1000B000B3010008B3010008B30100087D2C00085B
:1000C000712C0008B3010008B3010008B301000857
:1000D000B3010008F1420008FD420008094300088E
:1000E000B3010008B3010008B3010008DFF80CD029
:1000F00000F02AFC00480047454E00085843002005
:10010000224B19680868B0E8F00F80F30988BFF344
:100110006F8F4FF0000080F311884EF00D0E704786
:100120000000000006480068006880F3088862B696
:1001300061B6BFF34F8FBFF36F8F00DF00BF00BF0B
:1001400008ED00E0EFF30980BFF36F8F0F4B1A68E3
:1001500020E9F00F106008B54FF0500080F31188CF
:10016000BFF34F8FBFF36F8F05F056FE4FF00000C7
:1001700080F31188BDE8084019680868B0E8F00FFE
:1001800080F30988BFF36F8F704700BF40000020E5
:10019000EFF3058070470000064880470648004797
:1001A000FEE7FEE7FEE7FEE7FEE7FEE7FEE7FEE727
:1001B000FEE7FEE7893F0008ED000008202A04DB87
:1001C000203A21FA02F00021704721FA02F3D040D0
:1001D000C2F12002914008431946704740EA0103EA
:1001E0009B0703D009E008C9121F08C0042AFAD2ED
:1001F00003E011F8013B00F8013B521EF9D27047B1
:10020000D2B201E000F8012B491EFBD27047002258
:10021000F6E710B513460A4604461946FFF7F0FF05
:10022000204610BD30B505462A460B4612F8010B94
:1002300013F8014B08B1A042F8D01CB1002802D03D
:100240006D1CF1E7284630BD421C10F8011B002947
:10025000FBD1801A7047F0B480EA0102D40F42004B
:10026000B2EB410F02D20246084611464A0042D084
:10027000C30DDDB2C1F3C752AD1A202D35DAC1F37B
:10028000160141F4000204B15242C5F1200602FAFF
:1002900006F12A411044B3EBD05F23D0C4B1012D45
:1002A000A0EBC35009DCF0BC4FF0004202EAC3529D
:1002B000DBB200F5000000F004B9400000F18070EE
:1002C00000EBC350A0F1807040EAD170490009E012
:1002D000490841EAC071A0EBC35000F50000400896
:1002E00000EBC350F0BC00F0E3B86142012202EB26
:1002F0004101001BF6E7F0BC704781F00041AAE71E
:1003000080F00040A7E780EA010210B502F0004348
:10031000400022D04A001FD0010E01EB1261C0F351
:100320005600C2F3560240F4000042F40002A0FB63
:10033000022000047F39140400D0401C50EA12400F
:1003400001D44000491EC2B20C0604EBD010401C80
:100350004008802A02D003E0002010BD20F00100F8
:10036000002900DA0020184310BD70B521F00043C9
:1003700003430CD0C1F30A550024D5EB040564EB0C
:100380000403D617AD1AB34102DB0020014670BD4D
:10039000201841EB025170BD96230022114600F057
:1003A00090B80EB5C10F80EAE0700844CA0700217A
:1003B00040F233438DE80E000A460B4600F0BEF8CB
:1003C00003B000BD00F0004230F000400AD0C10D83
:1003D00001F56071C0F3160042EA0151C2084007FE
:1003E0001143704700200146704701F0004330B4CC
:1003F00021F0004150EA010206D00A0DA2F5607218
:10040000C1F31301002A02DC30BC00207047440F06
:1004100044EAC104C100E01830BC00EBC25000F057
:1004200047B830B50B46014600202022012409E0E0
:1004300021FA02F59D4205D303FA02F5491B04FA9D
:1004400002F52844151EA2F10102F1DC30BD2DE9B0
:10045000F05F0546002092469B4688460646814648
:1004600040241BE02846414647462246FFF7A6FEA9
:1004700053465A46C01A914110D311461846224697
:1004800000F074FA2D1A67EB01084F46224601204E
:10049000002100F06BFA17EB00094E41201EA4F179
:1004A0000104DFDC484631462A464346BDE8F09F5A
:1004B0000029A8BF7047401C490008BF20F0010078
:1004C000704710B4B0FA80FC00FA0CF050EA010456
:1004D00004BF10BC704749B1CCF1200421FA04F4E8
:1004E00011FA0CF118BF012121430843A3EB0C01C1
:1004F000CB1D4FEA00614FEA102042BF002010BC24
:10050000704700EBC35010440029A4BF10BC7047D3
:10051000401C490008BF20F0010010BC704710B516
:10052000141E73F1000408DA401C41F10001921816
:100530005B411A4301D120F0010010BD2DE9F04DBF
:1005400092469B4611B1B1FA81F202E0B0FA80F214
:100550002032904600F00AFA04460F4640EA0A00AC
:1005600041EA0B0153465A46084313D0114653EA59
:10057000010019D0C8F140025046FFF71FFE0546A2
:100580000E4650465946424600F0F0F9084305D061
:10059000012004E020463946BDE8F08D00200543E7
:1005A00046EAE0762C4337430A986305E40AA0EB59
:1005B00008000022FD0A44EA47540A3002D5002010
:1005C0000146E9E7010510196941DDE9084500190F
:1005D0006941BDE8F04DA2E72DE9FE4F804681EA72
:1005E0000300C00F0C46009021F0004123F00045AD
:1005F000B8EB0200A94105D24046214690461C4670
:100600000B46024623F00040104347D0270DC7F3A6
:100610000A00C3F30A510290401A019040286BDA95
:10062000C3F3130040F4801B0098924620B10023CE
:10063000D2EB030A63EB0B0B01985946C0F1400261
:10064000504600F093F906460D4650465946019A29
:1006500000F09BF910EB08006141002487EA115279
:1006600084EAE7731A4340D0009A62B3019A012AE0
:100670004FEA075215DC001B61EB02014FF000420C
:1006800002EA0752CDE90042001C41F580113246D2
:100690002B46FFF753FF03B0BDE8F08F40462146DD
:1006A000F9E7001B61EB0201001C41F58013001803
:1006B0005B412018A2F5001747EB030140EAD57013
:1006C000B6196D4111E06D084FEA360645EAC0756E
:1006D0004FEA0752001B61EB0201001C41F580113B
:1006E00049084FEA30000019514132462B4603B009
:1006F000BDE8F04FFFF713BF009801224000002330
:10070000D0EB020263EBE073009821464FEAE074FD
:10071000B8EB000061EB0401E9E783F000435BE71D
:1007200081F0004158E72DE9FE4F81EA030404F00F
:10073000004421F0004100944FF0000B23F00043EF
:1007400050EA01045ED052EA03045BD0C3F30A54BA
:10075000C1F30A552C44A4F2F3340194A0FB0254D3
:10076000C1F3130141F48011C3F3130343F4801365
:1007700001FB024400FB034E840A970A44EA8154B9
:1007800047EA8357A4FB076802958D0A05FB078596
:100790004FEA932C04FB0C542705029D4FEA0658A0
:1007A00047EA1637B5EB08056EEB070C870E920E7D
:1007B00047EA811742EA8312A7FB0201B6EB0B015D
:1007C00064EB00042B0D43EA0C335E1844EB1C5021
:1007D000DA465146E7FB0201C5F313044FEA0B3337
:1007E00043EA14534FEA0432019C43EA0603A4F19E
:1007F0000C040294009CCDE900B4FFF79FFE03B007
:10080000BDE8F08F00200146F9E72DE9F04D81EABF
:10081000030404F0004B21F0004514464FF0000A99
:1008200023F0004150EA050220D054EA01021DD015
:10083000C5F30A570246C5F31303C1F31300C1F30E
:100840000A5640F4801543F48013A7EB0608101BEA
:10085000D64608F2FD3873EB050002D308F1010813
:1008600001E092185B41B8F1000F03DA0020014665
:10087000BDE8F08D00204FF48011064684460EE05E
:10088000171B73EB050705D3121B63EB0503064328
:100890004CEA010C49084FEA300092185B4150EADB
:1008A0000107EDD152EA030012D082EA040083EA84
:1008B0000501084305D0101BAB4106D201220023DD
:1008C00006E000224FF0004302E06FF001025310F7
:1008D0001AEB06004CEB085110EB0A0041EB0B0140
:1008E000BDE8F04DFFF71BBEC1F30A52C1F313017F
:1008F00040F2FF3341F480119A4202DA00200146AF
:10090000704740F233439A42A2F2334202DC524231
:10091000FFF754BC00F02AB830B5041E71F1000492
:1009200004DB4FF00044404264EB0101141E73F1FC
:10093000000405DB1C464FF00043524263EB040306
:10094000994208BF904230BD064C074D06E0E06872
:1009500040F0010394E8070098471034AC42F6D306
:10096000FFF7C8FBE86E0008086F0008202A04DBC8
:10097000203A00FA02F1002070479140C2F12003B2
:1009800020FA03F3194390407047202A06DBCB1767
:10099000203A41FA02F043EAE07306E041FA02F33A
:1009A000D040C2F120029140084319467047FEE74B
:1009B0007FB504460020029008200090012001909D
:1009C0000320074D03906946284600F03DFE2CB1F8
:1009D00001220821284600F02CFF7FBD0022F8E705
:1009E000000C01402DE9FF4700252846FFF7E0FFF6
:1009F000142005F015F93D4E01220821304600F083
:100A000018FF1E2000F026FA002001900390082015
:100A10000090012002906946304600F015FE082142
:100A2000304600F001FF05F023F80821304600F0C1
:100A3000FBFE2F4C28B125E0012000F00BFA6D1CC5
:100A4000EDB20821304600F0EFFE08B9642DF3D373
:100A5000002504E0012000F0FDF96D1CEDB2082135
:100A6000304600F0E1FE012801D1642DF2D30025CB
:100A700000F042F860556D1CEDB2052DF8D3322020
:100A800000F0E8F905F014F827786078A678E578A2
:100A90003918721911442279C9B2914223D1A04662
:100AA000FFF77AFCDFF84C904946FFF72CFC044630
:100AB0003846FFF771FC2146FFF7CDFBC8F80C0064
:100AC0002846FFF769FC4946FFF71DFC04463046FF
:100AD000FFF762FC2146FFF7BEFBC8F808000120C3
:100AE00004B0BDE8F0870020FAE70000000C0140E8
:100AF000C4000020CDCCCC3D2DE9F041002425469A
:100B00002646DFF86C8004E0012000F0A3F96D1C9C
:100B1000EDB208214746404600F086FE08B9642D34
:100B2000F2D300251E2000F095F90821B84638467A
:100B300000F07AFE012801D0002706E0012704E03A
:100B4000012000F087F96D1CEDB20821404600F04D
:100B50006BFE012801D1642DF2D36006761C0025BE
:100B6000F6B247EA1064082ED3D32046BDE8F081E0
:100B7000000C01400D48016821F08071016001689E
:100B800041F0807101600A48016821F001010160B3
:100B9000016841F0010101600021416005480649FA
:100BA0000068B0FBF1F0054908607047FCED00E01B
:100BB000001000E03C00002040420F000400002034
:100BC0002DE9F1434FF46179DFF85C804FF0E024C8
:100BD000009824E04D46A84200D80546A66901F0D9
:100BE000FFF9B0FBF8F000FB1567002F05DBA069EB
:100BF000B04211DAB842FADA0EE001F0F1F9B0FBD6
:100C0000F8F000EB4001C1EBC01007EBC001A06998
:100C1000B042FCDD8842FADC0098401B00900028BE
:100C2000D8D1BDE8F883000040420F0010B500F0B5
:100C3000CBF8442000F0D2F840F2EE2004F0F0FFB0
:100C400000F0C2F8BE2000F0C9F800F071F80446C8
:100C500000F06EF8000201B251EA04006FF00304E4
:100C600001D5C043401CFFF79CFB2246FFF77DFBEC
:100C7000BDE81040FFF7B9BB10B500F01DF8012228
:100C80000221044800F0D5FD00F084F8BDE81040D2
:100C900000F022B8000801401FB500200190039029
:100CA00002200090012002906946024800F0CCFC2E
:100CB0001FBD0000000801401FB500200290022067
:100CC000009001200190032003906946014800F044
:100CD000BBFC1FBD0008014070B50024FFF7DCFF1E
:100CE000124D04E0641CE4B20120FFF769FF022109
:100CF000284600F099FD10B1642CF3D30FE0642C6A
:100D00000DD2002404E0641CE4B20120FFF758FF78
:100D10000221284600F088FD18B1F02C04D30120F0
:100D200070BDF02CEFD3FAE7002070BD0008014041
:100D30002DE9F0410026164F354600BF04F098FE1D
:100D4000FFF7BAFF00220221384600F072FD0220B0
:100D5000FFF736FFFFF7A0FF0A20FFF731FF022160
:100D6000384600F061FD01280FD0002404F0A0FEF9
:100D70003220FFF725FFAC4034436D1CEDB2E6B2E4
:100D8000082DDBD33046BDE8F0810124EEE70000FA
:100D90000008014010B5FFF78FFF0A4C0022022126
:100DA000204600F046FD40F2EE20FFF709FF012249
:100DB0000221204600F03DFDBDE810400F20FFF766
:100DC000FFBE00000008014010B5FFF7E3FFFFF78A
:100DD00083FFBDE81040CC20AFF3008070B505461E
:100DE000FFF76AFF194E002415F0010F4FEA550571
:100DF00012D004F03DFE00220221304600F019FD21
:100E00000220FFF7DDFE01220221304600F011FD35
:100E100004F04EFE3C2011E004F02AFE00220221E4
:100E2000304600F006FD4120FFF7CAFE01220221F4
:100E3000304600F0FEFC04F03BFE0220FFF7C0FE4F
:100E4000641CE4B2082CCFD370BD00000008014040
:100E50007047000004494A68044B1B6858434B68BC
:100E60009B1A8342FBD37047001000E0040000206F
:100E700010B54FF400710348FFF7C9F9024900208B
:100E8000088010BD800200202A00002070B5544C5C
:100E9000A0B0206818B9012005F09AF8206051A090
:100EA00003F03AFA4FF4FA725AA15CA000F012FA79
:100EB0004FF4FA652A465CA15CA000F00BFA40F6FC
:100EC000B836304604F0ACFEFFF7D2FF6C10224675
:100ED00055A158A000F0FEF9224653A158A000F0F9
:100EE000F9F95BA15EA003F017FA66A358A269A105
:100EF000684603F021FA44F620626BA1684600F0D0
:100F0000E9F9002820D06AA003F006FA04F0B6FF41
:100F10006DA003F001FA284604F082FE40F25B75F2
:100F20002A4676A179A003F0F7F92B4673A27FA198
:100F3000684603F001FA42F2107283A1684600F09D
:100F4000C9F9002820D118E081A003F0E5F988490B
:100F500088A003F0E1F98EA18548FFF763F908B195
:100F60008DA005E09BA18248FFF75CF910B19BA022
:100F700003F0D2F904F09AFF20E022462AA10020D3
:100F800000F0A8F9002823D0A1A003F0C5F920465D
:100F900004F046FE03F062FEFFF76AFF02F06CFB0E
:100FA000304604F03DFEA0A17148FFF73BF940B187
:100FB0009FA003F0B1F900BF03F06AFE002020B04B
:100FC00070BDA9A003F0A8F903F048FE0120F6E7E0
:100FD000ACA003F0A1F9664966A003F09DF9EBE728
:100FE0002C0000200D0A5B4553505D205374617244
:100FF000742F526573657420436F6E6E65637469F8
:101000006F6E2073657175656E63652E2E2E0D0AE9
:10101000000000004552524F5200000041542B4343
:101020004950434C4F5345004F4B000041542B5205
:101030005354000041542B43574D4F44453D31001C
:1010400041542B43574155544F434F4E4E3D300072
:101050004368696E614E65742D33303100000000C5
:101060005B4553505D20436F6E6E656374696E67B8
:1010700020746F20576946693A2025732E2E2E0D55
:101080000A0000004C58583138393139303632397D
:101090003536000041542B43574A41503D222573B9
:1010A000222C222573220000474F54204950000073
:1010B0005B4553505D205769466920436F6E6E65EE
:1010C000637465642E0D0A005B4553505D205761C3
:1010D0006974696E6720327320666F7220544350C2
:1010E00020537461636B2073746162696C697A6107
:1010F00074696F6E2E2E2E0D0A000000382E3133CB
:10110000372E3136382E3230390000005B455350CF
:101110005D20436F6E6E656374696E6720746F2027
:1011200025733A25642E2E2E0D0A000041542B43C0
:10113000495053544152543D22544350222C2225AD
:1011400073222C2564000000434F4E4E454354004B
:101150005B4553505D205769466920436F6E6E654D
:101160006374204661696C6564210D0A000000000B
:10117000800200205B44656275675D204553502006
:10118000526573706F6E73653A2025730D0A000007
:101190004E6F2041500000005B416E616C797369B5
:1011A000735D204572726F723A2043616E6E6F7488
:1011B0002066696E64205353494420284368656360
:1011C0006B20322E34472F416E74656E6E61290D8F
:1011D0000A0000004641494C000000005B416E617E
:1011E0006C797369735D204572726F723A20506139
:1011F0007373776F72642057726F6E67206F7220FF
:101200005369676E616C207765616B0D0A000000A1
:101210005B4553505D2054435020436F6E6E6563B1
:101220007465642E0D0A0000434C4F534544000082
:101230005B4572726F725D205365727665722063D2
:101240006C6F73656420636F6E6E656374696F6E37
:101250002E202841757468204661696C65642E2EC5
:101260002E290D0A000000005B53756363657373DC
:101270005D204D51545420436F6E6E6563746564F8
:10128000210D0A005B4553505D2054435020436FAD
:101290006E6E656374204661696C65642E20284318
:1012A0006865636B20436F64652054696D656F7575
:1012B000742E2E2E290D0A00014601A002F066BAF6
:1012C000686F6D652F73656E736F722F64617461E3
:1012D00000000000F8B504461C4815460E46036899
:1012E000186858680090186858680090186858681E
:1012F0000090186858680090FFF7BAFD0122144961
:10130000124801F017FC74B12046FEF79DFF82B22F
:10131000642321460D4801F059FC642302220DA1EB
:101320000A4801F053FC00240BE031460A48FEF75E
:1013300079FF08B10120F8BD322004F071FC32348D
:10134000A4B2AC42F1D30020F8BD0000F0010020AF
:10135000280000200D0A000080020020F0B51C4C7F
:10136000074689B020680E46002518B9012004F010
:101370002FFE206041F2883105F0C8F8012805D021
:1013800014A002F0C9FF09B02846F0BD324619A1E9
:10139000684602F0D1FF4FF4FA621AA16846FFF7DF
:1013A00099FF58B14FF47A7332463946164801F026
:1013B0000DFC642004F034FC012502E013A002F0CF
:1013C000ABFF00231A461946206804F0A5FEDAE7B1
:1013D0002C0000205B4553505D20427573793A2004
:1013E0005061636B65742044726F707065640D0AA0
:1013F0000000000041542B43495053454E443D25C5
:10140000640000003E000000F00100205B455350E6
:101410005D204572726F723A205761697420273ED1
:1014200027206661696C65642E20436F6E6E65636C
:1014300074696F6E206C6F73742E2E2E0D0A00006F
:1014400072B6FEE710B590F821100022022905D0EF
:101450000421816380F82020012010BD01680B6801
:1014600023F00E030B6001680B6823F001030B608F
:1014700090F84030C46B012101FA03F3636080F8F7
:10148000211080F82020104610BD000010B590F803
:1014900021100024022903D00421816301243DE0AE
:1014A00001680A6822F00E020A6001680A6822F0E8
:1014B00001020A601A4A0168914201D1012121E02A
:1014C000174A1432914201D110211BE0144A2832EC
:1014D000914201D1891515E0114A3C32914201D166
:1014E00089140FE00E4A5032914202D14FF48031FC
:1014F00008E00B4A6432914202D14FF4801101E0BE
:101500004FF08071064A083A5160012180F821109D
:10151000002180F82010416B01B18847204610BDA2
:1015200008000240806B704790F82100704700006F
:101530002DE9F04300233E4F0F2573E001229A402E
:101540000A406DD023F00304E619D6F808809C0702
:101550004FEA147C05FA0CF909EA0804DFF8D48094
:10156000404502D14FF0000816E0DFF8CC8040453E
:1015700002D14FF001080FE0DFF8C080404502D1F2
:101580004FF0020808E0DFF8B880404502D14FF084
:10159000030801E04FF0040808FA0CF8A04522D136
:1015A000284CD4F800C02CEA020CC4F800C0241D5A
:1015B000D4F800C02CEA020CC4F800C0214C0C3452
:1015C000D4F800C02CEA020CC4F800C0241FD4F8E0
:1015D00000C02CEA020CC4F800C0D6F808C02CEAFF
:1015E000090CC6F808C0FF2A01D8064601E000F140
:1015F00004064FEA830401D9A4F12004D6F800C000
:1016000005FA04F82CEA080C4FF0040808FA04F86C
:101610004CEA080CC6F800C0C46824EA0204C4609E
:1016200003F1010331FA03F288D1BDE8F083000031
:101630000000014000080140000C01400010014082
:1016400000140140000401402DE9F84FDFF8B89183
:101650000024A9F1040B23460F2709F1040AABF17A
:10166000040EC9E00125A5402A40AA427DD1674E5B
:10167000D1F804C0ACEB0608B44532D014DCBCF1A0
:10168000030F3AD009DCBCF1000F2AD0BCF1010FE6
:101690001CD0BCF1020F31D11DE0BCF1110F17D0ED
:1016A000BCF1120F2AD119E0B8F5881F19D006DC59
:1016B000B8F5803F15D0B8F5801F1FD111E0B8F5FF
:1016C000001F0ED0B8F5041F18D10AE0CB6815E052
:1016D000CB681B1D12E0CB6808330FE0CB680C33DE
:1016E0000CE08B682BB1012B4FF0080303D0456150
:1016F00004E0042302E0056100E00023FF2A01D892
:10170000064601E000F104064FEA840501D9A5F17F
:101710002005D6F8008007FA05FC28EA0C0803FA31
:1017200005F548EA0508C6F800804D68ED0062D569
:10173000374DAE6946F00106AE61AD6924F003068F
:1017400005F001050095334D06EB050CDCF808505B
:10175000A607360F07FA06F825EA0805DFF8B8806D
:10176000404503D14FF0000817E044E0DFF8AC80BB
:10177000404502D14FF001080FE0DFF8A48040455A
:1017800002D14FF0020808E0DFF89880404502D10E
:101790004FF0030801E04FF0040808FA06F848EAA1
:1017A0000508CCF808804D68D9F80060ED024D4678
:1017B00001D5164300E096432E604D68DAF80060CC
:1017C000AD02554601D5164300E096432E604D68A4
:1017D000DBF80060AD035D4601D5164300E096439B
:1017E0002E604D68DEF80060ED03754601D51643A6
:1017F00000E096432E60641C0D682A46E5407FF4A5
:1018000031AFBDE8F88F000008040140000011105E
:10181000001002400000014000080140000C01409F
:1018200000100140001401408068084000D00120F1
:1018300070470AB1016170470904FBE701488068FD
:101840007047000030000020704770472DE9F041DC
:10185000016804464A694E6890F83E000025D74367
:10186000FA050BD4F243D20508D46FF48072012537
:101870004A6121680A6842F400420A60B90508D446
:10188000F143C90505D422686FF4007145F00205E3
:101890005161790525D4F143C90522D4638D94F8AB
:1018A0003D10226B202808D13BB9212910D02929CD
:1018B0000ED0282901D1212A0AD022686FF4806134
:1018C000516145F00405102806D0402804D008E0F6
:1018D000204601F0DBFD04E02068016841F400715E
:1018E0000160380508D4F043C00505D421686FF4C1
:1018F000006045F008054861002D07D0206C2843A2
:1019000020642046BDE8F04101F024BABDE8F08132
:101910002DE9F047026800215368C66A90F83E40FE
:1019200090F83D50102C12D0402C10D0046C002C9C
:101930007DD05469E443A6077AD4DE43B60577D454
:10194000036C03B19169BDE8F04701F07BBD976975
:1019500051694FF42A0CC9435FEAC1784FF02A4914
:1019600004D066452AD04E4528D010E0DE43B605A7
:101970000DD4C16A614501D1012103E0C16A494525
:1019800001D10821C162BDE8F04701F0C1BC0E07DA
:1019900016D4DE43B60513D4416CC9B21161416B54
:1019A00009B1896A29B9816B002907D0896A0029A0
:1019B00004D00068416841F400614160BDE8F087EF
:1019C0008E0706D4DE43B60503D4BDE8F04701F028
:1019D000F3BBFE43526876074FEA02521DD4002A39
:1019E000ECDB0A0608D4DA43520505D4490705D5CD
:1019F000BDE8F04701F084BB4907DFD4D94389052E
:101A0000DCD4212D05D0402CD8D1BDE8F04701F021
:101A1000C5BCBDE8F04701F031BB002ACEDB4A0669
:101A20000BD4DA43520508D4490708D501E00DE08C
:101A30000EE0BDE8F04701F0A7BA4907BED4D9438C
:101A40008905BBD4BDE8F04701F030BA916970E771
:101A5000E10606D4D943890503D4BDE8F04701F077
:101A60005DBD2821212D27D0292D25D0650655D4EF
:101A7000DD436D0552D4640752D590F83D30448D56
:101A8000002C9BD01269446A2270426A521C426246
:101A9000428D521E4285428D002A8FD12A2B8DD134
:101AA0000268536823F4806353602222026380F843
:101AB0003D1000F04FF981E7250623D4DD436D0585
:101AC00020D4640720D590F83D30448D002CF2D00E
:101AD000446A24781461426A521C4262428D521E4A
:101AE0004285428D002AE6D1292BE4D10268536851
:101AF00023F4806353602122026380F83D1000F0DC
:101B00002AF95BE76107D6D4D9438905D3D4418D3F
:101B10000029D0D0416A097811610AE06107CAD46E
:101B2000D9438905C7D4418D0029C4D01169426ABF
:101B30001170416A491C4162418D491E41853DE752
:101B40007047000070B5040025D094F83D000025D2
:101B500020B984F83C50204600F0BEF8242084F8D8
:101B60003D002068016821F00101016020680168E2
:101B700041F4004101602068016821F400410160E6
:101B800000F034FA4D4A6168914201D84C4900E0B6
:101B90004C49884201D2012070BD4B492368B0FBFB
:101BA000F1F15E6826F03F060E435E606368934283
:101BB00006D94FF4967359434FF47A73B1FBF3F19E
:101BC0002368491C1E6A26F03F063143196261688A
:101BD000914210D84900401EB0FBF1F2521CC2F3F2
:101BE0000B02042A01D2042022E0B0FBF1F0401CD9
:101BF000C0F30B001CE0A268F2B301EBC10303EBDE
:101C00000116431EB3FBF6F35B1C43F480431B0534
:101C100049D092B301EBC10202EB0111401EB0FBAF
:101C2000F1F0401CC0F30B0040F4804040F4004051
:101C30002168CA694CF6FF739A431043C861D4E91E
:101C4000071001432068026822F0C00211430160BE
:101C5000D4E9030101432068826848F2FF339A43C4
:101C600011438160D4E9050108432168CA6822F064
:101C7000FF021043C86001E00EE016E02068016832
:101C800041F0010101602564202084F83D002563B6
:101C900084F83E50002070BD01EB4106431EB3FBAB
:101CA000F6F35B1CB3E70120C2E701EB4101401EE4
:101CB000B0FBF1F0401CC0F30B00B7E7A0860100B9
:101CC00080841E0000093D0040420F0070477047AD
:101CD000704770477047000010B586B00021009132
:101CE0000191029103910068174988422AD1174C4B
:101CF000A06940F00800A061A069694600F00800F2
:101D00000490C020009012200190032003901048FE
:101D1000FFF79AFCE06940F40010E061E0690022FE
:101D200000F40010049005211F2000F091F81F20FE
:101D300000F081F800220521202000F089F8202001
:101D400000F079F806B010BD0054004000100240C9
:101D5000000C0140704770470248816802781144C6
:101D60008160704730000020074810B5016841F0DD
:101D700010010160032000F08BF80F2000F006F83E
:101D800000F024F8002010BD0020024070B50D4D79
:101D900004464FF47A712878B1FBF0F00A490968DB
:101DA000B1FBF0F000F0F8FA48B9102C07D200228D
:101DB0002146501E00F04CF800206C6070BD0120E0
:101DC00070BD0000300000203C0000200F4808B526
:101DD000816941F001018161816901F00101009196
:101DE000C16941F08051C161C069002200F080509A
:101DF00000900F21901E00F02BF80548416821F05B
:101E0000E06141F00071416008BD00000010024037
:101E10000000014000280DDB00F01F02012191406D
:101E20004009800000F1E020C0F88011BFF34F8F1F
:101E3000BFF36F8F7047002809DB00F01F020121FC
:101E400091404009800000F1E020C0F80011704787
:101E5000F0B40E4B1B680C46C3F30223C3F1070515
:101E6000042D00D90425191D072901D2002300E003
:101E7000DB1E012606FA05F1491E214099409E40CD
:101E8000761E16403143F0BC02F06ABA0CED00E059
:101E9000064900F0070208684FF6FF03184040EAC1
:101EA0000220034A10430860704700000CED00E078
:101EB0000000FA052DE9F0470F46050061D0434EBA
:101EC000306800F00700B84209D2306820F00700FF
:101ED00038433060306800F00700B84251D12868BC
:101EE0003B4C810712D5400703D5606840F4E060A1
:101EF00060602878000703D5606840F46050606037
:101F00006068A96820F0F000084360602878C00786
:101F100028D06868012810D02168022810D08907CD
:101F200000292EDA616821F0030101436160FFF7A7
:101F300085FC804641F288390DE021688903EFE78E
:101F40008901EDE7FFF77AFCA0EB0801494502D9CA
:101F50000320BDE8F0876068696800F00C00B0EB12
:101F6000810FEFD1306800F00700B8420BD930681C
:101F700020F0070038433060306800F00700B842B6
:101F800001D00120E5E72878400705D56068E968B9
:101F900020F4E060084360602878000706D5606898
:101FA000296920F4605040EAC100606000F03EF80A
:101FB0006168084AC1F30311515CC84006490860D2
:101FC00006480068FFF7E2FE0020C2E7002002405A
:101FD00000100240C26E00083C00002034000020C7
:101FE00001480068704700003C0000200448054993
:101FF00000684968044AC1F30221515CC840704737
:102000003C00002000100240D26E00080448054940
:1020100000684968044AC1F3C221515CC840704756
:102020003C00002000100240D26E00080E4A5168A9
:102030000E4801F00C03042B11D0082B0FD10C48D3
:10204000C1F38343C903C05C0AD55168084AC1F390
:102050004041921E515C054A5043B0FBF1F070477D
:1020600004494843704700000010024000127A0003
:10207000B26E000800093D002DE9F84F040070D051
:102080002078C04DC00749D06868C0F3810001289E
:1020900007D06868C0F38100022809D16868C003CE
:1020A00006D52868800339D560680028E7D035E078
:1020B0006068B0F5803F0BD010B1B0F5A02F11D003
:1020C000286820F480302860286820F4802002E00E
:1020D000286840F480302860606890B1FFF7AEFB5C
:1020E00006460AE0286840F480202860F0E700BF38
:1020F000FFF7A4FB801B642873D828688003F7D5FA
:102100000CE0FFF79BFB064605E000BFFFF796FBE0
:10211000801B6428F0D828688003F7D420789A4E72
:1021200080074FF001094FF0000839D5686810F0BA
:102130000C0F07D06868C0F38100022809D16868D5
:10214000C00306D42868800714D52069012808D167
:1021500010E02069B0B1C6F80090FFF76FFB0746AA
:1021600005E00AE1FFF76AFBC01B0228C4D8286813
:102170008007F7D52868616920F0F80040EAC100BF
:1021800028600DE0C6F80080FFF758FB074604E022
:10219000FFF754FBC01B022823D828688007F7D418
:1021A000207800072CD57948A169D9B1C0F80090F2
:1021B000FFF744FB074604E0FFF740FBC01B022883
:1021C0000FD8686A8007F7D571484FF4FA51006854
:1021D000B0FBF1F0009000BF0098411E0091FAD2D0
:1021E0000EE080E0C0F80080FFF728FB074604E01F
:1021F000FFF724FBC01B022875D8686A8007F7D454
:102200002078400760D5E8690027C00008D4E86955
:1022100040F08050E861E869012700F080500090AC
:102220005C480168C90513D40168834641F4807194
:102230000160FFF703FB824606E000BFFFF7FEFAEE
:10224000A0EB0A0064284ED8DBF80000C005F5D5E5
:10225000E06801280AD008B1052813D0286A20F0C8
:1022600001002862286A20F0040002E0286A40F099
:1022700001002862E06841F2883B98B1FFF7DEFA7E
:1022800082460BE0286A40F004002862EEE700BFB7
:10229000FFF7D4FAA0EB0A0159455AD8286A8007FB
:1022A000F6D50CE0FFF7CAFA824605E0FFF7C6FA5A
:1022B000A0EB0A0159454CD8286A8007F6D41FB113
:1022C000E86920F08050E861E06988B36968C1F38B
:1022D0008101022944D00228C6F8608004D0FFF7AB
:1022E000ADFA044638E034E0FFF7A8FA074604E008
:1022F000FFF7A4FAC01B02282BD828688001F7D466
:10230000206AB0F5803F05D16868A16820F40030EC
:1023100008436860D4E908010843696821F474112E
:1023200008436860C6F86090FFF788FA044606E044
:1023300025E000BFFFF782FA001B022809D82868B1
:102340008001F7D51BE000BFFFF778FA001B0228D9
:1023500002D90320BDE8F88F28688001F4D40EE08C
:102360000128F7D06868226A00F48031914204D1D4
:10237000616A00F47010884201D00120EAE7002071
:10238000E8E70000001002400000424280044242A0
:102390003C0000200070004010B5401EB0F1807F6E
:1023A00001D3012010BD4FF0E02460610F216017C0
:1023B00001F0D6FF0020A06107202061002010BDA1
:1023C00070B590F83C20012A26D0012480F83C40CA
:1023D000022280F83D2003685A689D6822F070064A
:1023E0000A6832435A600D4B02689A4208D0B2F133
:1023F000804F05D00A4B9A4202D00A4B9A4204D130
:10240000496825F080031943916080F83D40002120
:1024100080F83C10084670BD022070BD002C0140C1
:10242000000400400008004010B5040003D094F8F8
:102430003D0010B107E0012010BD002084F83C00F1
:10244000204600F01FF8022084F83D00211D20687E
:1024500001F09CFD012084F8460084F83E0084F8D9
:102460003F0084F8400084F8410084F8420084F87A
:10247000430084F8440084F8450084F83D000020BF
:1024800010BD000008B500680649884208D106481A
:10249000816941F400618161806900F4006000900D
:1024A00008BD0000002C01400010024070B5044639
:1024B00090F83C000025012817D0012684F83C60E4
:1024C000022084F83D002068826822F0770222F41E
:1024D0007F4282600868502838D00DDC20284FD019
:1024E00005DC90B3102811D14AE0022070BD3028DD
:1024F00046D040280AD13BE060282FD070280DD06C
:10250000B0F5805F03D0B0F5005F12D0012584F8EC
:102510003D60002084F83C00284670BDCB68D1E9BE
:102520000121206801F06EFD2068816841F077018B
:1025300009E0CB68D1E90121206801F063FD206842
:10254000816841F480418160E1E719E0CA68496827
:10255000206801F069FD5021206806E0CA684968DA
:10256000206801F072FD6021206801F055FDCEE782
:10257000CA684968206801F057FD40212068F4E7E7
:10258000226801461046F0E7704770B5044620689F
:102590000C3050E8001F21F4907140E80012002A2E
:1025A000F5D12068143050E8001F21F0010140E807
:1025B0000012002AF5D1206B012809D120680C30C7
:1025C00050E8001F21F0100140E80012002AF5D168
:1025D000206840694FF00005400615D5206814308A
:1025E00050E8001F21F0400140E80012002AF5D118
:1025F000E06B48B14563E06BFEF724FF20B1E06B70
:10260000FEF790FF202806D0E585202084F84200C0
:102610002563002070BD10206064032070BD10B5DC
:10262000040015D0242084F841002068C16821F4FA
:102630000051C160204600F0A7F90020606484F8D2
:10264000410084F8420044F8300F6060207410BDEF
:10265000012010BD38B504460068134900238842A4
:1026600011D1124A5188B1F5FF7F06D8104815786C
:102670004554491C89B2518043540D4801220B49ED
:10268000903800F057FA0B49206888420BD1016856
:1026900041680091016841680091016841680091BA
:1026A00001684068009038BD0044004028000020C8
:1026B0008002002000480040F8B501680446086820
:1026C000CA684B6910F00F0F4FF0000559D003F0A6
:1026D000010602F49077374365D0C10705D0D105D4
:1026E00003D5616C41F001016164410705D5D9074B
:1026F00003D0616C41F002016164810705D5D907FF
:1027000003D0616C41F004016164010707D502F058
:102710002001314303D0616C41F008016164616CB8
:1027200000293AD0800604D5900602D5204601F053
:10273000CDFC20684069616CC0F38010090700D4AB
:1027400060B3204601F09BFC20684069400621D51B
:102750002068143050E8001F21F0400140E80012CA
:10276000002AF5D1E06BA8B16D494163E06BFEF73B
:102770008DFE002811D0E06B416B01B0BDE8F04048
:10278000084783060FD593060DD52046BDE8F840CF
:1027900001F09CBC2046FFF75DFFF8BD2046FFF727
:1027A00059FF6564F8BD266B2023012E7CD1C60637
:1027B0007AD5D60678D508684868009048694FF001
:1027C0000206400640D5E16B086840680004000C32
:1027D000E8D0A28D8242E5D9E085886920282DD0F5
:1027E00020680C3050E8001F21F4807140E800128E
:1027F000002AF5D12068143050E8001F21F00101B3
:1028000040E80012002AF5D12068143050E8001F7B
:1028100021F0400140E80012002AF5D184F842304E
:10282000256320680C3050E8001F21F0100140E8BB
:102830000012002AF5D1E06BFEF704FE6663A08D5E
:10284000E18D401A81B22AE0A08DE18D401A81B25B
:10285000E08D0028A6D00029A4D022680C3252E8CE
:10286000000F20F4907042E80007002FF5D1206897
:10287000143050E8002F22F0010240E80027002F1A
:10288000F5D184F84230256320680C3050E8002FE1
:1028900022F0100240E80023002BF5D166632046A9
:1028A000FFF772FEF8BDFFE705062BD5150629D503
:1028B00094F841002128F5D1A068B0F5805F01D1DE
:1028C0002069B0B1206A411C21622168007848600B
:1028D000E08C401E0004000CE084E3D12068C16855
:1028E00021F08001C1602068C16841F04001C160F1
:1028F000D8E7206A0088C0F308004860206A801C7E
:102900002062E5E74006CDD55006CBD5CA68204603
:1029100022F04002CA6084F8413000F0A7F9C1E714
:102920006F40000870B5040004D094F84100002501
:1029300010B106E0012070BD84F84050204600F040
:102940005FF8242084F841002068C16821F4005118
:10295000C160204601F01CFC2068016921F490410F
:1029600001612068416921F02A0141612068C16844
:1029700041F40051C1606564202084F8410084F86E
:1029800042006563002070BD10B5174B02681749FF
:1029900017489A4209D18A6922F480428A614FF429
:1029A000C061FEF7C5FD252018E0124B9A4208D100
:1029B000CA6922F40032CA610C21FEF7B9FD262053
:1029C0000CE00D4882420DD1C86920F48020C86116
:1029D0004FF440610948FEF7ABFD2720BDE81040E9
:1029E000FFF718BA10BD0000003801400010024087
:1029F000000801400044004000480040000C014035
:102A0000F0B585B000240094019402940394036807
:102A1000424F022042490322424D4602BB4225D189
:102A20008B6943F480438B618B6903F48043049387
:102A30008B6943F004038B618969039201F00401FF
:102A400004910102CDE9001069462846FEF7FCFD1D
:102A5000CDE90064694628460294FEF7F5FD0022A0
:102A600005212520FFF7F4F9252028E02E4FBB4251
:102A700029D1CB6943F40033CB61CB6903F4003334
:102A800004938B6943F004038B618969039201F01D
:102A9000040104910421CDE9001069462846FEF79F
:102AA000D3FD0820CDE90004694628460294FEF7CC
:102AB000CBFD002205212620FFF7CAF92620FFF7CB
:102AC000BAF905B0F0BD194DAB42FAD1CB6943F468
:102AD0008023CB61CB6903F4802304938B6943F09B
:102AE00008038B618969124D01F00801CDE90321CA
:102AF000CDE9006069462846FEF7A6FDE814CDE959
:102B00000004694628460294FEF79EFD0022052136
:102B10002720FFF79DF92720D1E70000003801406A
:102B200000100240000801400044004000480040FE
:102B3000000C014090F84230202B01D00220704759
:102B400021B11AB10023036301F07EBB012070475D
:102B500038B50446006817490025884211D1164A45
:102B60005188B1F5FF7F06D8144813784354491CA7
:102B700089B251804554114801220F499038FFF71E
:102B8000D9FF0F492068884213D10E4801680029F7
:102B90000FD000956946006803F0CDFB009800282F
:102BA00007D009494FF080500860BFF34F8FBFF343
:102BB0006F8F38BD004400402800002080020020B4
:102BC000004800400800002004ED00E02DE9F84333
:102BD000044690F84100984616460D46202802D03B
:102BE0000220BDE8F88385B17EB100206064212019
:102BF00084F84100FEF722FEA6848146E684A068A0
:102C00002027B0F5805F02D003E00120E9E72069CA
:102C100010B12E4600250EE000260CE08021204653
:102C200001F02DFBA8B9C6B116F8010B2168486068
:102C3000E08C401EE084E08C4B464FF00002CDF863
:102C400000800028EAD14FF04001204601F017FB38
:102C500040B184F841700320C3E735F8020BC0F39C
:102C60000800E3E784F841700020BAE77047FEE708
:102C70000148FEF7EBBD00000C0100200148FEF703
:102C800047BE00000C01002038B5406A002190F8D2
:102C90003D202B4B46F2A8141B68B3FBF4F3C3EBA7
:102CA000C30303EB830300933BB15B1E00930368F4
:102CB0001B689B0505D5009BF6E7036C43F02003DA
:102CC0000364436B03B19962836B03B19962036838
:102CD0001C6824F480641C604185436B03B1596314
:102CE000836B03B1596303681C6824F001041C6002
:102CF00090F83D402023602C0BD0282434EA0202B7
:102D00000FD080F83D3080F83E1000BFFEF718FF6E
:102D100038BD80F83D3080F83E100164FEF794FD28
:102D200038BD0268136843F001031360026813683A
:102D300043F480631360016380F83D40E6E70000E0
:102D40003C00002000684169C943090601D4002104
:102D50000161704770B5044690F83D0094F83E104C
:102D6000102901D0402906D1222804D121680A68FF
:102D700022F400620A60282131EA00024FF00005C7
:102D80004FF0200626D021684968090505D460283F
:102D900003D084F83D6084F83E5025632068416884
:102DA000090537D5416821F400614160606B90F8F6
:102DB00021203C49012A11D04163606BFEF766FB7C
:102DC00038B32068016821F00101016084F83D609A
:102DD000606B1CE0256384F83D10DFE7A06B416366
:102DE000A06BFEF753FBA0B120684169C9434906B7
:102DF00005D40069616A0870606A401C60622068DE
:102E0000016821F00101016084F83D60A06B416B15
:102E1000884710E094F83D10602910D04169C943FB
:102E2000490605D40069616A0870606A401C6062E6
:102E30002046FEF785FE206CC1071CD115E084F802
:102E40003D6025644169C943490605D40069616A4A
:102E50000870606A401C60622068016821F001010E
:102E600001602046FEF7F0FCE5E7810703D4410747
:102E700001D4000704D52068416821F4E061416075
:102E800094F83D00216C49070BD5282809D1064844
:102E9000E062256384F83D6084F83E502046FEF7EA
:102EA00015FF70BD892C00080000FFFF10B5C26A35
:102EB000438D0168042B06D0438D032B08D0438D2E
:102EC000022B1DD012E04A6822F480624A600CE0B6
:102ED0004B6823F480634B60042A06D0022A04D096
:102EE00001680A6822F480620A6001680969426A1E
:102EF0001170416A491C4162418D491E418510BDD6
:102F0000012A34D0102A32D0042A34D0022A32D0F6
:102F10000B6843F400730B6001680969436A197018
:102F2000416A491C4162438D5B1E438503681B69EE
:102F30000B70416A491C4162418D491E41850168FF
:102F40004B6823F440734B60202180F83D1090F8CB
:102F50003E300021402B80F83E1010D0082A02D0CD
:102F6000202A00D012210163FEF7B1FE10BD0B68CC
:102F700023F48063CFE70B6843F48063CBE70163FE
:102F8000FEF7A7FE10BD000038B590F83D102229CD
:102F900010D1C36A418D03290DD901680969426ABC
:102FA0001170416A491C4162418D491E4185418D24
:102FB000032906D038BDC26A022A02D0012906D0F0
:102FC00029B10068416821F48061416038BD2A4A16
:102FD00046F2A81400211268B2FBF4F202EB82025E
:102FE000009202682024009D6D1E009526D0156871
:102FF000AD05F8D4156825F480651560026855683C
:1030000025F4E065556002681269456A2A70426AD3
:10301000521C4262428D521E428580F83D4090F81B
:103020003E2080F83E10402A21D0082B02D0202BD1
:1030300000D012210163FEF74AFE38BD036C43F055
:1030400020030364536823F4E06353600268126949
:10305000436A1A70426A521C4262428D521E428575
:1030600080F83D4080F83E10FEF76AFD38BD0163F0
:10307000FEF72FFE38BD00003C00002010B5C26AEC
:1030800090F83D1021290BD1418D51B1416A026860
:1030900009781161416A491C4162418D491E41858F
:1030A00010BD20230021082A13D0202A11D012F5A8
:1030B000803F0ED00268546824F4E064546011220A
:1030C000026380F83E1080F83D3000BFFEF700FE3E
:1030D00010BD0268546824F4E06454600268146807
:1030E00044F400741460016380F83D3090F83E2091
:1030F00080F83E10402AE9D1FEF7ECFD10BD00003B
:1031000010B590F83D1090F83E30C26A048DB4B10D
:10311000212903D0402B11D122290FD1418DE1B3B8
:1031200090F83E10402942D0416A02680978116146
:10313000416A491C4162418D491E418510BD2129CA
:10314000E8D120230021082A13D0202A11D012F51B
:10315000803F0ED00268546824F4E0645460112269
:10316000026380F83E1080F83D3000BFFEF7B0FDEE
:1031700010BD0268546824F4E06454600268146866
:1031800044F400741460016380F83D3090F83E20F0
:1031900080F83E10402AE9D100E002E0FEF79AFDF7
:1031A00010BD0068416821F48061416010BDBDE838
:1031B000104000F0F3B8000078B590F83E50C26AB5
:1031C000046B90F83D6000230168222E73D1066DD8
:1031D0000EB9402D6FD0056D1DB90569B5F5404F8D
:1031E0001BD0458D95B3468D484D012E20D0448D82
:1031F000022C4DD00C6844F480640C6001684C686B
:10320000240579D5AA4273D0012A71D0082A6FD03B
:10321000102A6DD0202A6BD06EE04A698A6900922C
:103220000A6842F480720A60016D491C016578BD2C
:10323000AA4214D10A6822F480620A6001684A68CE
:10324000120504D50A6822F4806217E0FFE74A6994
:103250008A6900920A6842F400720A6050E0082A03
:1032600010D0202A0ED0122C0AD0042A03D0022A11
:1032700001D0102AE6D10A6842F480620A603BE07D
:10328000012ADFD00A6822F480620A600168DEE762
:10329000042A11D0022A0FD0102A0DD00C6844F451
:1032A00000640C6001684C698C6900940C6824F41B
:1032B00080640C6008E025E00C6844F480640C60D5
:1032C00001684C698969009101684C68240517D52B
:1032D000AA4207D0012A05D0082A03D0102A01D01B
:1032E000202A0DD14A6842F480524A6008E0FFE784
:1032F0004A6842F480524A6001684A6989690091CB
:10330000036578BD48698869009078BD0000FFFFBB
:1033100090F83E10402910D00169B1F5804F19D0C6
:10332000016DA9B3016D012910D1416C5FF0F1026B
:1033300001F4407142EAD11106E0016D0029416CAF
:1033400005D0C9B241F0010100680161704701F088
:10335000FE01F9E790F83D102129416C09D0C9B26E
:1033600041F0010102681161416B29B1896A49B9D3
:1033700002E001F0FE01F5E7816B0029E6D0896AE1
:103380000029E3D00068416841F400614160704762
:10339000FFE7416CF02201F44071CBE710B590F8E3
:1033A0003D10026D4AB1026D012A14D0026D022A4D
:1033B00016D0BDE81040FFF7C5BCC16C0129816C77
:1033C00002D0C1F3072108E00268C9B21161016DA2
:1033D000891C016510BD816CC9B20268116123E0CE
:1033E00022291CD0428D0AB1212920D0428D002AE9
:1033F000F0D12129EED101684A6822F4E0624A60E6
:1034000001680A6842F400720A6000210163202208
:1034100080F83D2080F83E10FEF75CFC10BD01688E
:103420000A6842F480720A60016D491CD1E7416A62
:10343000026809781161416A491C4162418D491E47
:10344000418510BD38B50C4690F83D200021282557
:10345000954302680B4605D051699169009180F847
:103460003C3038BD556825F480655560E24354070B
:1034700000D50121120601D5828900E0028B80F877
:103480003C3092B2FEF7E1F938BD00002DE9F04181
:1034900090F83D300446C26A002120261E4F006885
:1034A0006FF48065082A01D0202A01D1282B04D08E
:1034B000212B17D04561BDE8F081E762426822F414
:1034C000E0624260206845612068026822F4806200
:1034D0000260216384F83D6084F83E102046FEF7C8
:1034E000F5FBE8E7E7622122226384F83D6084F877
:1034F0003E10416821F4E061416020684561206828
:10350000016821F4806101602046FFF71BFC204622
:10351000FEF721FCCFE700000000FFFFF8B590F8B0
:103520003D6004460068416821F4E0614160206824
:10353000002541690091016841F0010101602068A6
:10354000016821F48061016020684168090520D587
:10355000474F222E48D02A2E46D0616B0968496811
:103560006185618D19B1216C41F0040121644168CC
:1035700021F400614160606BFDF7D6FF012808D09F
:10358000606B4763606BFDF781FF10B1606B416B4F
:103590008847608D08B320684169C943490708D44A
:1035A0000069616A0870606A401C6062608D401E3C
:1035B000608520684169C943490608D40069616A89
:1035C0000870606A401C6062608D401E6085608D7E
:1035D00018B1206C40F004002064206C00B3204639
:1035E000BDE8F840FFF7B6BBA16B09684968618583
:1035F000618D19B1216C41F004012164416821F40D
:1036000000614160A06BFDF78FFF0128C1D0A06B66
:103610004763A06BFDF73AFF0028BAD0A06BB6E76E
:103620002A2E06D12563282084F83D002046FEF787
:1036300091FB94F83D10202028290DD0216B2229E0
:1036400001D0222E07D1256384F83D0084F83E5036
:103650002046FEF77FFBF8BD0649E162256384F84A
:103660003D0084F83E502046FEF730FBF8BD0000D8
:10367000892C00080000FFFFFEB5244C10272821EC
:103680002770601C00F072F821A3401C0ECB8DE85F
:103690000E0080B22118009A0A60019A4A60BDF8B3
:1036A00008200A300A8180B200262654401C80B2CD
:1036B0003A462754401C85B2601918A1FCF78EFDCC
:1036C0001035A8B205222654401C80B218A12254FD
:1036D000401C85B26019FCF781FD6D1DA8B2032264
:1036E0002654401C80B214A12254401C85B260199B
:1036F000FCF774FDED1CACB210A000F00DFE03B0A1
:103700002146BDE8F0400148FDF728BE80040020B6
:1037100000044D51545404C20078000073746D339A
:10372000325F6465766963655F30303100000000A8
:1037300061646D696E000000313233005B4D51549D
:10374000545D2053656E64696E6720436F6E6E65CD
:103750006374205061636B657420746F20416C69E1
:1037600079756E2E2E2E0D0A0000000003460020F3
:1037700001F07F02C909002902D000BF42F0800297
:103780001A5400F10100F3D1704700002DE9F04711
:1037900088468146FCF758FD85B24046FCF754FD4B
:1037A00086B2A819801C144C81B230202070601C95
:1037B000FFF7DCFF401C80B2290A2154401C80B274
:1037C0002A462554401C87B2E0194946FCF706FDFD
:1037D000781985B2601932464146FCF7FFFCA819FA
:1037E00084B24246494605A000F096FD2146BDE858
:1037F000F0470148FDF7B2BD800600205B4D5154F3
:10380000545D205075623A202573202D3E2025738B
:103810000D0A00007CB5384A0021384801F0AEFBA3
:10382000374C00221C2160600A2002F0DCFBA06003
:1038300000221C21012002F0D6FBE06000221C21A6
:10384000012002F0D0FB206100221C21012002F0A7
:10385000CAFB6061A168002949D0E168002946D00F
:103860002169002943D0002841D04FF48C7125A054
:1038700000F052FD1C212FA000F04EFD1C2138A0AD
:1038800000F04AFD1C2142A000F046FD33A000F0EC
:1038900043FD00242025CDE900542346802247A182
:1038A000494802F029FFCDE900540023802247A1B6
:1038B000494802F021FFCDE900540023802247A1AE
:1038C0004A4802F019FF1825CDE9005400234FF4AF
:1038D000807247A1494802F00FFFCDE90054002350
:1038E0004FF4007246A1494802F006FF7CBD48A093
:1038F00000F012FDCAE700008C6E0008113F0008BE
:10390000100000207851756575657353656E736F8F
:1039100072204372656174652073756363656564C5
:10392000212C73697A65206973203A2025640D0A79
:1039300000000000785175657565444854313120A8
:103940004372656174652073756363656564212CDA
:1039500073697A65206973203A2025640D0A000096
:103960007851756575654453313842323020437261
:10397000656174652073756363656564212C736983
:103980007A65206973203A2025640D0A0000000042
:10399000785175657565505A454D2043726561745F
:1039A000652073756363656564212C73697A65208E
:1039B0006973203A2025640D0A00000064687431A0
:1039C000315461736B000000E54C000864733138BA
:1039D0006232305461736B00A54D0008707A656DDA
:1039E000303034745461736B00000000CD5800080F
:1039F0005072696E745461736B000000453D00089D
:103A0000657370383236365461736B008D6B000805
:103A1000517565756573204372656174696F6E20B9
:103A20004661696C6564210D0A0000002DE9F047CC
:103A300086B000242D480094019402940394816977
:103A400041F010018161816901F0100104918169E7
:103A500041F020018161816901F0200104918169B7
:103A600041F004018161816901F0040104918169DF
:103A700041F0080181618069DFF8748000F008007E
:103A80004FF400550490002229464046FDF7D1FE30
:103A9000DFF860904FF48177002239464846FDF701
:103AA000C8FEDFF854A0002208215046FDF7C1FEF1
:103AB0000095022601250396CDE90154694640464A
:103AC000FDF7C2FD00970396CDE9015469464846CB
:103AD000FDF7BAFD0820CDE90005CDE902466946AB
:103AE0005046FDF7B1FD06B0BDE8F087001002407A
:103AF0000010014000080140000C01400D4810B5C5
:103B00000B4901600C49416000214FF48042816003
:103B1000C0E9031241618161C1610162FEF712F8DF
:103B2000002803D0BDE81040FDF78ABC10BD00009E
:103B3000005400400C010020A086010010B586B0A2
:103B400000241748009401940294039404941349A8
:103B5000059401604721C0E901144FF6FF71C0E9E7
:103B6000031444618461FEF75FFC08B1FDF768FC53
:103B70004FF48050009069460948FEF797FC08B161
:103B8000FDF75EFC049404A905480594FEF718FCB3
:103B9000002801D0FDF754FC06B010BD002C0140F8
:103BA000600100200C4810B50A4901604FF4E13172
:103BB0004160002181600C22C160C0E90412816172
:103BC000C161FEF7AFFE002803D0BDE81040FDF74D
:103BD00037BC10BD00380140A80100200C4810B5CA
:103BE0000A4901604FF4E1314160002181600C22FB
:103BF000C160C0E904128161C161FEF793FE002833
:103C000003D0BDE81040FDF71BBC10BD00440040D0
:103C1000F00100200C4810B50A4901604FF416511C
:103C20004160002181600C22C160C0E90412816101
:103C3000C161FEF777FE002803D0BDE81040FDF714
:103C4000FFBB10BD0048004038020020FEE7FEE741
:103C500010B5064C60602068002805D103220021C1
:103C6000012002F0C0F9206010BD00000800002013
:103C7000F8B52E4C05460021206802F047FC1922B9
:103C80002B496068FEF756FFD8B9642308222949FA
:103C90006068FEF79BFFC821206802F037FC01280E
:103CA00008D06068FEF771FC6068006801684068D1
:103CB000009006E01E4C2078012802D1607804288C
:103CC00001D00020F8BDB4F80300641D40BAFCF731
:103CD00063FB194E3146FCF716FB2860206840BA9A
:103CE000FCF75AFB1549FCF70EFB6860606840BAA8
:103CF000FCF752FB3146FCF706FBA860A06840BA0F
:103D0000FCF74AFBE860A08940BAFCF745FB314666
:103D1000FCF7F9FA2861E08940BAFCF73DFB084955
:103D2000FCF7F1FA68610120F8BD000008000020EE
:103D3000D4000020846E0008CDCCCC3D6F12833AB5
:103D40000AD7233C8AB034A000F0E6FA374E4FF091
:103D5000FF373A4602A9B06802F03CFB0128F8D1CF
:103D600030780128F5D19DF8080000283AD00128C4
:103D700048D00228EDD12EA000F0CEFA0398FCF72F
:103D800021FB02460B462FA000F0C6FA0498FCF770
:103D900019FB02460B4630A000F0BEFA0598FCF76E
:103DA00011FB02460B4631A000F0B6FA0698FCF76C
:103DB00009FB02460B4632A000F0AEFA0798FCF76A
:103DC00001FB02460B4633A000F0A6FA0898FCF768
:103DD000F9FA02460B4634A000F09EFA36A000F035
:103DE0009BFAB6E70498FCF7EDFA04460D460398F3
:103DF000FCF7E8FA02460B4634A0CDE9004500F096
:103E00008BFAA6E70398FCF7DDFA02460B4639A0C9
:103E100000F082FA9DE700005072696E745461737D
:103E20006B2052656164792E0D0A0000100000209D
:103E30003D3D3D20505A454D2D30303454203D3DC0
:103E40003D0D0A0020566F6C7420203A20252E313B
:103E50006620560D0A000000204375727220203A39
:103E600020252E336620410D0A00000020506F7778
:103E70006572203A20252E316620570D0A00000079
:103E800020456E657267793A20252E306620576886
:103E90000D0A0000204672657120203A20252E313F
:103EA0006620487A0D0A0000205046202020203A43
:103EB00020252E32660D0A003D3D3D3D3D3D3D3DF8
:103EC0003D3D3D3D3D3D3D3D3D0D0A005B4448547B
:103ED00031315D20202054656D703A20252E3166E9
:103EE00020432C2048756D693A20252E3166202507
:103EF000250D0A005B445331384232305D20546551
:103F00006D703A20252E326620430D0A0000000015
:103F1000FEE710B5FDF720FF02F046FC012803D0B4
:103F2000BDE8104002F03EB810BD30B58FB028217A
:103F30006846FCF76CF914210AA8FCF768F901211E
:103F40000804CDE900100024029402250491CDE973
:103F500007504FF4E01009906846FEF78DF808B15D
:103F600072B6FEE70F20CDE90A054FF48060CDE977
:103F70000C4002210AA80E94FDF79CFF002801D0F6
:103F800072B6FEE70FB030BD70470000F0B50268B2
:103F9000194B1A4C1A4D4FF08047984205D0B84241
:103FA00003D0A04201D0A84203D122F070064A6893
:103FB0003243984205D0B84203D0A04201D0A84273
:103FC00003D122F44074CA6822434C6922F0800273
:103FD000224302608A68C2620A688262984201D102
:103FE00009690163012141610169C90703D00169C0
:103FF00021F001010161F0BD002C014000040040EE
:104000000008004010B5846842EA032224F47F448B
:104010000A432243826010BD826822F070020A4384
:1040200042F007018160704710B5036A046A24F00A
:1040300001040462846924F0F00444EA021423F0C9
:104040000A020A438461026210BD10B5036A046A61
:1040500024F010040462846923F0A00324F4704463
:1040600044EA023243EA01118261016210BD10B5D7
:10407000406A0021C185C184FEF7ECFA10BD0168D9
:104080000C3151E8002F22F4907241E80023002BFC
:10409000F5D10168143151E8002F22F0010241E806
:1040A0000023002BF5D1016B012909D101680C31E6
:1040B00051E8002F22F0100241E80023002BF5D137
:1040C000202180F8421000210163704708B590F864
:1040D0004210222901D0022008BD82684FF480538B
:1040E0009A4201D1016921B1816A9A421BD04AB139
:1040F0000AE00268816A5268C2F308020A80816A93
:10410000891C08E0026972B10268526802F07F02FD
:104110000A70816A491C8162C18D491E0904090C1B
:10412000C18503D01BE002685268F1E70168CA68E4
:1041300022F02002CA600168CA6822F48072CA6054
:1041400001684A6922F001024A61202180F8421088
:1041500000214163026B012A03D0FEF7F9FC002025
:1041600008BD016301680C3151E8002F22F01002F4
:1041700041E80023002BF5D101680A68D20602D578
:104180000A6849680091818DFEF7FEF9E7E70000B3
:1041900070B5044600680169E26821F4405111439A
:1041A00001612169A0680843616908432168CA6800
:1041B00041F20C639A430243CA6020684169A269D4
:1041C00021F44071114341611E492068884202D1A7
:1041D000FDF71CFF01E0FDF709FF00EBC00101EB5B
:1041E0000012606864218000B2FBF0F3B3FBF1F3CE
:1041F0006FF018067343B2FBF0F5B2FBF0F605EB77
:104200008305322303EB0515B5FBF1F5B6FBF1F69B
:1042100005F0F00505EB0615B2FBF0F6B2FBF0F089
:10422000B0FBF1F06FF01802504306EB800003EB97
:104230000010B0FBF1F0216800F00F002844886006
:1042400070BD00000038014081628285C285002176
:104250004164222180F84210016921B10168CA68D5
:1042600042F48072CA6001684A6942F001024A6100
:104270000068C16841F02001C160002070472DE94D
:10428000F843984617460D460446089E24E0701CE5
:1042900022D0FDF7D3FAA0EB0800B0421AD8CEB175
:1042A0002068C168490717D5802D15D0402D13D03F
:1042B0000168C94309070FD40168002540680090D0
:1042C0002046FFF7DCFE0820606484F8405001209F
:1042D000BDE8F8830320FBE72068006835EA0000AA
:1042E00004D00020B842D2D00020F1E70120F9E745
:1042F0000148FEF7E1B90000A80100200148FEF7DF
:10430000DBB90000F00100200148FEF7D5B900003C
:1043100038020020FEE700000FB4054B10B503A9DA
:10432000044A029800F0FEF810BC5DF814FB00008F
:104330002D4E0008C00000200FB4084B10B504A992
:1043400002AA039800F0EEF8044602A9002000F04B
:1043500080FC204610BC5DF814FB0000534C0008A4
:104360000907090E002804DB00F1E02080F80014A2
:10437000704700F00F0000F1E02080F8141D704736
:1043800002E008C8121F08C1002AFAD1704770471E
:10439000002001E001C1121F002AFBD1704700007C
:1043A0002DE9FF5F82B00021DDE90430020DDDF868
:1043B00040B0034318D044F61050A2F2FF324243FB
:1043C0001514119801281FD0A5EB0B00401C5FEAC3
:1043D000000A4FF000064E4FDFF83891B0465046C5
:1043E00015D5CAF1000413E0119801244AA301284D
:1043F00001D16FEA0B010298119AC0E90031C0E9BE
:10440000024206B0BDE8F09FCBF10000DFE70446B2
:104410000021404A491842EB0450CDE9001012E057
:10442000E00707D032463B4640464946FCF77BF959
:104430008046894632463B4610461946FCF773F9DA
:1044400006460F466410002CEAD1DDE90401DDE9DF
:104450000023BAF1000F06DAFCF765F942464B4635
:10446000FCF761F905E0FCF7D0F942464B46FCF752
:10447000CCF904460E460022284BFCF74DFA03D82F
:104480004FF0FF30014607E00022254B2046314621
:10449000FCF7A2F8FCF728FA102409E0002C0ADB4C
:1044A0000A220023FBF7D3FF039B30321A55641E08
:1044B00050EA0102F2D1641C039AC4F111031444BE
:1044C000119A012A03D0012208430DD10AE00843C2
:1044D00004D000204FF0110B119072E7A3EB0B05F5
:1044E0006D1E0DE05B4504DD4FF0000205F1010596
:1044F00004E003DA4FF00002A5F10105002AECD038
:1045000002981199C0E90231C0E9004579E700003D
:10451000000014400000F03F300000000000F043B5
:104520000000E03F2DE9FF4F95B09B4689460646C7
:1045300000250FE2252877D100242746F84A0121DB
:10454000059400E0044316F8013F203B01FA03F014
:104550001042F7D130782A2811D06FF02F0330782D
:10456000A0F13002092A16D8059A44F0020402EBA1
:10457000820203EB42021044761C0590EFE759F8E3
:10458000042B0592002A03DA504244F400540590AB
:1045900044F00204761C30782E2816D116F8010F4C
:1045A00044F004042A280DD06FF02F023078A0F1D7
:1045B0003003092B09D807EB870302EB4303C71825
:1045C000761CF3E759F8047B761C30786C280FD002
:1045D00006DC4C2817D068280DD06A2814D104E0D6
:1045E000742810D07A280FD10DE044F400140AE0AA
:1045F00044F4801401E044F440147278824202D101
:1046000004F58014761C761C307866280BD013DCF9
:10461000582877D009DC002875D04528F6D04628E0
:10462000F4D047281AD19DE118E0632835D06428DA
:1046300079D0652812D195E1702873D008DC6728FD
:10464000F1D069286FD06E280DD06F2806D1B5E063
:1046500073282CD0752875D0782874D05A461799AD
:1046600090476D1C75E1C4F30250022809D003285D
:104670000DD0D9F8001004280DD00D6009F10409FF
:1046800067E1D9F80010EA17C1E90052F6E7D9F856
:1046900000100D80F2E70D70F0E719F8041B8DF89B
:1046A000001000208DF80100EA46012003E059F8CF
:1046B00004AB4FF0FF3061074FF0000102D40DE072
:1046C00008F101018846B9420FDA8045F8DB1AF893
:1046D00008100029F4D108E008F101018846814260
:1046E000FADB1AF808100029F6D105985B46A0EB12
:1046F000080721463846179A00F094FA284400EB40
:10470000080507E04DE029E10DE01AF8010B5A46D3
:1047100017999047B8F10108F7D25B462146384611
:10472000179A13E142E00A220092C4F302524FF0BA
:10473000000A022A08D059F804CB032A4FEAEC7188
:104740000AD00DE029E02AE009F1070121F0070273
:10475000F2E802C1914609E00FFA8CFC4FEAEC71D5
:10476000042A03D14FFA8CFC4FEAEC71002907DAD6
:104770000A460021DCF1000C61EB02012D2202E06F
:10478000220504D52B228DF80420012203E0E20744
:1047900001D02022F7E7904659E00A2102E01022DA
:1047A0000DE010214FF0000A00910BE010224FF0B5
:1047B000000A44F004040827009203E008224FF0A6
:1047C000000A0092C4F30252022A05D059F804CB21
:1047D0000021032A08D009E009F1070121F00702AE
:1047E000F2E802C1914605E01FFA8CFC042A01D1CF
:1047F0000CF0FF0C4FF00008220728D5702806D0D7
:10480000009B83F0100353EA0A0305D00EE0402218
:104810008DF80420012208E05CEA010206D0302273
:104820008DF804208DF8050002229046009B83F04D
:10483000080353EA0A030AD15CEA010201D16207C4
:1048400005D530228DF804204FF001087F1E58282E
:1048500004D034A003900EA802900DE036A0F9E732
:1048600053466046009AFBF7F2FD84460398825C4B
:104870000298401E029002705CEA0100F0D102989A
:1048800006A9081A00F1200A600702D524F4803432
:1048900000E00127574502DDA7EB0A0000E00020F9
:1048A00000EB0A01009005984144401A0590E0038E
:1048B00006D45B462146179A059800F0B3F90544E3
:1048C000002706E001A85A46C05D179990476D1C65
:1048D0007F1C4745F6DBE0030CD55B462146179A63
:1048E000059800F09FF9054404E030205A461799D6
:1048F00090476D1C0099481E00900029F5DC08E0E7
:10490000029802995A460078491C029117999047DB
:104910006D1CBAF10001AAF1010AF1DC65E10000A9
:104920000928010030313233343536373839616285
:104930006364656600000000303132333435363749
:1049400038394142434445460000000000F058F920
:104950000544761C307800287FF4ECAD19B0284669
:10496000BDE8F08F620700D4062709F1070222F0A4
:10497000070CFCE80223E14603F000485FEA080C5C
:1049800002D00FF2702C0DE05FEA045C02D50FF24A
:10499000682C07E05FEAC47C02D00FF2602C01E0D3
:1049A000AFF2700C4FF0FF3823F00043CDF850C049
:1049B00065280CD006DC452809D046281DD047289C
:1049C0003DD13DE0662818D067287ED138E000212F
:1049D000112F01DB112000E0781CCDE9000106A9B0
:1049E0000EA8FFF7DDFCDDE90F010E9A039100210F
:1049F000009207F1010A04914DE04FF0004000974A
:104A0000CDE9011006A90EA8FFF7CAFCDDE90F02E7
:104A100003920E9B11990022DDF80CA000930492E2
:104A200011B9791C00EB010AB7EB0A0004D4C0F1FC
:104A3000FF3007F1010A0490AAEB0700019044E05F
:104A4000012F00DA01270021112F01DD112000E0E4
:104A50003846CDE9000106A90EA8FFF7A1FCDDE963
:104A60000F010E9A0391002104910092BA4621078A
:104A70000CD40399514500DA8A46BAF1010F05DDDD
:104A8000009AAAF10101515C302908D0B84202DA3B
:104A900010F1040F06DA0121CDE9011015E0AAF1A9
:104AA0000101E9E7002805DC049901440491AAEB1F
:104AB000000102E0411C514500DD8A460499401A7C
:104AC000401C01904FF000400290200704D4019850
:104AD000504501DBCDF8048000208DF84F0002988E
:104AE0000DF14F07B0F1004F25D02B200E9002980A
:104AF0004FF0020800280CDA404202902D200E9060
:104B000007E00A210298FBF78CFC3031029007F88D
:104B1000011DB8F10001A8F10108F2DC029800289B
:104B2000EFD1791E0E980870307800F0200040F028
:104B3000450007F8020D12A8C01B00F107081498E1
:104B4000007800B1012000EB0A01019801EBE0714F
:104B500005984144401A401E0590E00306D45B4688
:104B60002146179A059800F05DF8054414980078DE
:104B700018B15A46179990476D1CE00324D55B463F
:104B80002146179A059800F04DF805441CE004985A
:104B9000002807DBDDE90301884203DD0098405C63
:104BA000179901E0179930205A469047049805F16B
:104BB0000105401C04900198401E019004D12E2054
:104BC0005A46179990476D1CBAF10001AAF1010AE3
:104BD000DDDC05E017F8010B5A46179990476D1C6C
:104BE000B8F10001A8F10108F4DC5B462146179AF0
:104BF0000598ABE62D0000002B000000200000000F
:104C00002DE9F041044600251E461746880404D4C9
:104C100005E039462020B0476D1C641EF9D52846B2
:104C2000BDE8F0812DE9F041044600251E4690467E
:104C3000C80301D5302700E02027880404D505E00B
:104C400041463846B0476D1C641EF9D52846BDE87C
:104C5000F0810A68531C0B601070704770B5012218
:104C60000A4D540321462846FCF7E3FD4FF4FA664B
:104C7000304600F0D5FF002221462846FCF7D9FD3A
:104C80003046BDE8704000F0CBBF0000001001408E
:104C900070B50122124D540321462846FCF7C9FD88
:104CA0004FF4FA66304600F0BBFF0022214628464A
:104CB000FCF7BFFD304600F0B3FF01222146284635
:104CC000FCF7B7FD304600F0ABFF00222146284636
:104CD000FCF7AFFD3046BDE8704000F0A1BF00001A
:104CE0000010014088B000208DF80000FBF742FF63
:104CF0000120FBF75DFE17A0FFF70EFB1B4C1C4DC0
:104D00001C4E4FF4FA6700BFFBF76CFE00B3A068BF
:104D100010F0FF4F03D1E16811F0FF4F11D0019067
:104D2000E0680290286820B100231A46694601F025
:104D3000F3F9306840B102230022694601F0ECF932
:104D400002E00DA0FFF7E8FA384600F069FFDBE764
:104D50000FA0F7E74448543131205461736B20535E
:104D6000746172746564210D0A000000C4000020A3
:104D7000180000201C0000204448543131205A659E
:104D8000726F2052656164696E670D0A0000000051
:104D900044485431312052656164204661696C6534
:104DA000640D0A0088B001208DF80000FBF764FF55
:104DB00013A0FFF7B1FA184E184F194C194DDFF830
:104DC000688040F2DC5900BFFBF730FF2060B04242
:104DD00011D2B8420FDA0190286820B100231A4698
:104DE000694601F099F9D8F8000020B102230022A9
:104DF000694601F091F9484600F012FFE4E700002F
:104E000044533138423230205461736B2053746103
:104E100072746564210D0A00000048C20000164348
:104E200000000020180000202000002013B54FF6DD
:104E3000FF73012269460248FDF7C8FE00981CBDB9
:104E4000A8010020FCF790FFFFF76FF8FEF7EEFDDA
:104E5000FEF754FEFEF7A6FEFEF770FEFEF7DAFE42
:104E6000FEF7BCFE06A0FFF757FA0AA0FFF754FAB8
:104E700000F056F8FEF7CEFC00F064F8FEE7000004
:104E80006672656572746F7320696E6974204F4B2A
:104E9000210D0A000D0A000070B50122124D5403C5
:104EA00021462846FCF7C5FC4FF47A76304600F0E0
:104EB000B7FE002221462846FCF7BBFC304600F036
:104EC000AFFE012221462846FCF7B3FC304600F035
:104ED000A7FE002221462846FCF7ABFC3046BDE881
:104EE000704000F09DBE00000010014070B501222E
:104EF0000A4D540321462846FCF79BFC4FF47A7672
:104F0000304600F08DFE002221462846FCF791FC39
:104F10003046BDE8704000F083BE00000010014044
:104F2000EFF3058010B16FF0050070470448016889
:104F300011B14FF0FF307047012101600020704730
:104F40009000002010B5EFF3058010B16FF0050060
:104F500010BD08480168012902D04FF0FF3010BD94
:104F6000054A002182F8141D0221016000F008FFAB
:104F7000002010BD900000200BE000E02DE9FF4173
:104F80004FEA01034FF00005EFF30581039549BB9C
:104F900040B38027182100244AB3166806B134466E
:104FA00096691EB13146761E382E02D21679F60762
:104FB00003D0002004B0BDE8F081566906B1B708FF
:104FC000D2F808C0BCF1000F0DD0D5685C2D18D305
:104FD00012693AB136B18DE806103A46214601F021
:104FE000B8FB03900DE0D6685EB912694AB903AA0E
:104FF000CDE90012BAB2214601F07EFB012800D0B3
:1050000003950398D6E700002DE9F041134C0F46B5
:105010000546E6682068001D00F0CEFC681C07D13C
:1050200037B12168BDE8F0410D48091D00F014BDFD
:1050300020683544B5424560216805D2A06BBDE8C3
:10504000F041091D00F0F0BC606B091D00F0ECFCA4
:10505000A06A854200D2A562BDE8F0814000002030
:10506000700F00202DE9F041054600F001FD2D4CA8
:10507000A068401CA06020682B4F10B1606930B35D
:105080002BE02560A068012827D1002606EB8600CA
:1050900007EB800000F0BAFC761C382EF6D32348CC
:1050A00000F0B4FC2148143000F0B0FC1F48283058
:1050B00000F0ACFC1D483C3000F0A8FC1B48503010
:1050C00000F0A4FC194860631430A06305E0206878
:1050D000E96AC06A884200D82560606A401C606244
:1050E0006864E86A2169884200D9206100EB800089
:1050F00007EB8000291D00F0AFFC00F0D9FC6069CF
:1051000000280CD02068E96AC06A884207D20849A2
:105110004FF080500860BFF34F8FBFF36F8FBDE833
:10512000F081000040000020C00A0020200F002075
:1051300004ED00E038B500F09BFC104C2068C8B9C5
:105140000F4800F063FC0E48143000F05FFC0C4880
:10515000E060143020610A4B0020F03B009003F126
:10516000500210210A2000F05FFF206010B105A15D
:1051700000F020FDBDE8384000F09ABC7C00002023
:1051800074100020546D72510000000030B4026CA5
:105190000B46002A0BD0C1681144C1608468A1424B
:1051A00001D30168C16030BC1846FBF717B830BCAA
:1051B00070472DE9F041856B174604460026026CC6
:1051C00082B1C7B1E068FBF709F8E168206C091A01
:1051D000E1602268914202D2A168081AE060022FC1
:1051E00016D017E02068A8B9A06801F055FB064664
:1051F0000020A0600EE06068FAF7F0FF216C6068A4
:1052000008446060A168884204D32068606001E0BF
:1052100005B16D1E6D1CA5633046BDE8F08110B56B
:10522000044690F8590058B101280CD002280FD03C
:10523000502080F31188BFF34F8FBFF36F8FFEE7CD
:10524000206B00F049FC2046BDE8104000F044BC53
:1052500010BD000010484FF42051420706D0C01D79
:105260000D4920F00700411AC1F520510B4A0023D7
:105270000144C2E900030839183A21F0070111601E
:105280004B600B600B1AC0E9001393604FF00040B5
:10529000536050617047000054170020AC0000209C
:1052A000144E154CA6F29C474FF08058DFF84C90F6
:1052B00012E000BF00F0DCFBF068C568281D00F0BC
:1052C0007BFBA068401EA0606068401E606000F02C
:1052D000EFFB2846FFF7A3FF60680028EAD1386893
:1052E0000128F9D9C9F80080BFF34F8FBFF36F8F42
:1052F000F2E700005C0F00204000002004ED00E019
:10530000002807D00021816001600B460A46C16079
:1053100000F002BF7047000070B51D46049C51B1FB
:10532000C4F80020C4E90F010121204600F0B0FEBE
:1053300084F84C5070BD2460F4E700002DE9F05F64
:105340008846DDE90B941546834691009A460A9EED
:10535000A522206BFAF754FF6FF00301206B01EBDD
:105360008501084420F00707780707D0502080F314
:105370001188BFF34F8FBFF36F8FFEE70025B8F1A1
:10538000000F0FD05FF00000221818F8001082F80C
:10539000341018F8001011B1401C1028F4D384F810
:1053A000435001E084F83450382E00D33726E662AB
:1053B000C4E91365201D00F034FB04F1180000F06F
:1053C00030FB2461C6F138006462A061656584F831
:1053D000585052465946384600F066FA2060B9F1F6
:1053E000000F01D0C9F80040BDE8F09F30B5114969
:1053F00000E011460A688242FBD34B685C18844285
:1054000003D1406818444860084643681C18944219
:1054100009D1084C183C2468A24209D052681A44A9
:1054200042600A6812680260814200D0086030BDA4
:105430000460F9E7AC00002070B5002441600B4D1A
:105440000061914206D8D11A8269914206D2011DAB
:10545000286907E09A4203D2994201D3012403E06C
:10546000011DE86800F0E0FA204670BD7C000020D5
:1054700010B5044600F0FCFAA06B28B15FF0000400
:1054800000F016FB204610BD0124F9E730B589B0C5
:105490003C4D6EE00498002806DADDE90601059A25
:1054A00090470498002864DB069C606910B1201DB9
:1054B00000F082FA03A800F0D7F8024604980A2800
:1054C00057D2DFE800F00505052D334A05052D33D9
:1054D00094F8280040F0010084F828000599A0699C
:1054E000059B01442046FFF7A7FF68B3216A2046C9
:1054F000884794F8280040073BD500200090059885
:10550000A169002342181946204601F00BFBD8B9C7
:10551000502080F31188BFF34F8FBFF36F8FFEE7EA
:1055200014F8280F20F00100207022E094F82800E1
:1055300040F0010084F828000598A06128B1811886
:1055400013462046FFF778FF13E0502080F31188C0
:10555000BFF34F8FBFF36F8FFEE794F828008107EA
:1055600003D4204600F0B8FA03E020F0010084F8EC
:105570002800002204A9286800F02CFF002889D107
:1055800009B030BD7C0000202DE9FC410F460546E6
:1055900000F03AFC01A800F067F80446019818B141
:1055A00001F02EFABDE8FC81254EAFB130690068EC
:1055B000D0B30027291B3A46306800F00FFB01F0FA
:1055C0001FFA0028EED11F494FF080500860BFF34A
:1055D0004F8FBFF36F8FE5E7A542EBD801F010FACC
:1055E000F0682746C068C468201D00F0E5F994F80B
:1055F0002800410719D5A0692B4641193A46204693
:10560000FFF71AFFA8B100200346014600902A4682
:10561000204601F087FA60B9502080F31188BFF36B
:105620004F8FBFF36F8FFEE707E020F0010084F893
:105630002800216A20468847B4E70127BAE700001E
:105640007C00002004ED00E00648416B096829B1A8
:10565000416BC968C9684968816270474FF0FF3182
:10566000FAE700004000002070B5054601F0AAF8F6
:10567000064E0446B068844203D200F009F80120C7
:1056800000E0002028602046B46070BD7C0000204F
:10569000F8B5194D20E0C068C4680668201D00F008
:1056A0008BF9216A2046884794F82800400713D5D3
:1056B000A0693044B04206D924616060211DE868C9
:1056C00000F0B2F908E0002003460146009032469F
:1056D000204601F027FA38B1E86801680029DAD1DC
:1056E0002969C5E90310F8BD502080F31188BFF384
:1056F0004F8FBFF36F8FFEE77C00002008484068A3
:10570000401C4FF0500080F3118804D0BFF34F8F3E
:10571000BFF36F8FFEE7BFF34F8FBFF36F8FFEE7CF
:10572000B4000020074CE068016841B1C068002166
:10573000D0F80000FFF728FFFFF7A8FEF3E70121EC
:105740000020F7E77C0000202DE9F041044600F03E
:105750008FF994F9455004F1240609E0606A48B1D4
:10576000304601F015F908B100F088FA6D1E6DB2EF
:10577000002DF3DC4FF0FF3684F8456000F098F917
:1057800000F076F994F9445004F1100709E020691B
:1057900048B1384601F0FCF808B100F06FFA6D1E10
:1057A0006DB2002DF3DC84F84460BDE8F04100F0F8
:1057B0007FB900002DE9F0410546002700F024FBE9
:1057C000324E306808B9FFF745FD706905424ED189
:1057D000C5B3083568070ED005F00700C0F1080012
:1057E0000544680707D0502080F31188BFF34F8F1E
:1057F000BFF36F8FFEE72DB37068854237D823481B
:10580000183001460C6801E020460C466168A94248
:1058100002D221680029F7D131688C4227D007686D
:105820002168016060680837411B10290FD9601991
:10583000420708D0502080F31188BFF34F8FBFF389
:105840006F8FFEE713E041606560FFF7CFFD616891
:105850007068401A7060B268904200D2B06070699F
:1058600001430020C4E90001F068401CF06001F031
:10587000C7F8780707D0502080F31188BFF34F8F07
:10588000BFF36F8FFEE73846BDE8F081940000203B
:105890000449086818B10868026D521C026508685E
:1058A000704700004000002010B5031F4FF08074C7
:1058B0001C601B1F21F001011960191F024B0B60B6
:1058C000143940380A6010BDFD56000888B0022027
:1058D0008DF8000000242248FEF7BAF94FF47A77D9
:1058E000384600F09DF91FA0FEF716FD23A0FEF735
:1058F00013FD234D234E2448FEF7BAF9E0B12248A8
:105900000024016801914168029181680391C16896
:1059100004910169059140690690286820B100232F
:105920000A22694600F0F8FB3068A8B10223002281
:10593000694600F0F1FB0FE0641CE4B2052C0BD3C8
:1059400012A0FEF7E9FC0648FCF769FEFEF762F9D3
:105950000348FEF77DF90024384600F061F9CAE7F4
:1059600038020020505A454D205461736B20537407
:105970006172746564210D0A000000000D0A0000C8
:105980001800002024000020F0000020505A454D4F
:105990003A20436F6E6E656374696F6E204C6F734F
:1059A000742120526573657474696E672055415285
:1059B000542E2E2E0D0A0000D0E9013201699A60A2
:1059C000D0E901235A604A68824201D182684A6064
:1059D000002202610868401E0860086870470000E5
:1059E000034B036003F15C00086080201060704787
:1059F0009C100020044B036003F15C0008604FF42E
:105A00008070106070470000F812002000F108015B
:105A10004FF0FF32C0E90112C16001610021016055
:105A2000704700210161704730B50B685A1C02D0E5
:105A300000F1080202E0026904E022465468256889
:105A40009D42FAD953684B6099608A605160086141
:105A50000168491C016030BD42684A6093688B60F0
:105A600093685960916008610168491C0160704742
:105A7000502080F31188BFF34F8FBFF36F8F0A4917
:105A80004868401C486001280CD10848006810F0A4
:105A9000FF0F07D0502080F31188BFF34F8FBFF363
:105AA0006F8FFEE770470000B400002004ED00E0B7
:105AB0000849486828B1401E486001D180F3118828
:105AC0007047502080F31188BFF34F8FBFF36F8F63
:105AD000FEE70000B400002070B500282AD0164D63
