:020000040800F2
:10000000804500209D010008AF44000853310008DE
:10001000AD440008330B0008CD4E0008000000007E
:1000200000000000000000000000000005010008C2
:10003000D50F00080000000049010008CD4A000863
:10004000B7010008B7010008B7010008B7010008B0
:10005000B7010008B7010008B7010008B7010008A0
:10006000B7010008B7010008B7010008B701000890
:10007000B7010008B7010008B7010008B701000880
:10008000B7010008B7010008B7010008B701000870
:10009000B7010008B7010008B7010008B701000860
:1000A000B7010008B7010008B7010008B701000850
:1000B000B7010008B7010008B70100086131000866
:1000C00055310008B7010008B7010008B701000862
:1000D000B7010008A94E0008B54E0008C14E00083F
:1000E000B7010008B7010008B7010008DFF810D019
:1000F00000F08AFC00480047215A0008AFF3008056
:1001000080450020224B19680868B0E8F00F80F3A2
:100110000988BFF36F8F4FF0000080F311884EF015
:100120000D0E70470000000006480068006880F36C
:10013000088862B661B6BFF34F8FBFF36F8F00DFE1
:1001400000BF00BF08ED00E0EFF30980BFF36F8F41
:100150000F4B1A6820E9F00F106008B54FF05000FF
:1001600080F31188BFF34F8FBFF36F8F06F044FC0D
:100170004FF0000080F31188BDE808401968086856
:10018000B0E8F00F80F30988BFF36F8F704700BFAE
:1001900040000020EFF305807047000006488047CC
:1001A00006480047FEE7FEE7FEE7FEE7FEE7FEE75C
:1001B000FEE7FEE7FEE7FEE7434B0008ED00000820
:1001C000202A04DB203A21FA02F00021704721FAAC
:1001D00002F3D040C2F12002914008431946704713
:1001E00040EA01039B0703D009E008C9121F08C0B9
:1001F000042AFAD203E011F8013B00F8013B521E39
:10020000F9D27047D2B201E000F8012B491EFBD2AF
:1002100070470022F6E710B513460A460446194611
:10022000FFF7F0FF204610BD30B505462A460B46C5
:1002300012F8010B13F8014B08B1A042F8D01CB121
:10024000002802D06D1CF1E7284630BD421C10F892
:10025000011B0029FBD1801A704770B5064604F0D7
:100260006BFE046805460A220021304600F048F97A
:100270002C6070BDF0B480EA0102D40F4200B2EBF2
:10028000410F02D20246084611464A0042D0C30D31
:10029000DDB2C1F3C752AD1A202D35DAC1F3160114
:1002A00041F4000204B15242C5F1200602FA06F1FF
:1002B0002A411044B3EBD05F23D0C4B1012DA0EB91
:1002C000C35009DCF0BC4FF0004202EAC352DBB27B
:1002D00000F5000000F055B9400000F1807000EB1F
:1002E000C350A0F1807040EAD170490009E049088C
:1002F00041EAC071A0EBC35000F50000400800EBDC
:10030000C350F0BC00F034B96142012202EB41015C
:10031000001BF6E7F0BC704781F00041AAE780F0CF
:100320000040A7E780EA010210B502F00043400058
:1003300022D04A001FD0010E01EB1261C0F356001B
:10034000C2F3560240F4000042F40002A0FB022077
:1003500000047F39140400D0401C50EA124001D43C
:100360004000491EC2B20C0604EBD010401C4008ED
:10037000802A02D003E0002010BD20F001000029F7
:1003800000DA0020184310BD70B521F0004303438C
:100390000CD0C1F30A550024D5EB040564EB04032B
:1003A000D617AD1AB34102DB0020014670BD2018FC
:1003B00041EB025170BD96230022114600F0E1B8D6
:1003C0000EB5C10F80EAE0700844CA07002140F270
:1003D00033438DE80E000A460B4600F00FF903B0D8
:1003E00000BD00F0004220F00040C10DC0F3160037
:1003F00040F400007F2901DA00207047962903DCD1
:10040000C1F19601C84001E096398840002AF4D035
:100410004042704700F0004230F000400AD0C10D69
:1004200001F56071C0F3160042EA0151C2084007AD
:100430001143704700200146704701F0004330B47B
:1004400021F0004150EA010206D00A0DA2F56072C7
:10045000C1F31301002A02DC30BC00207047440FB6
:1004600044EAC104C100E01830BC00EBC25000F007
:100470007FB830B50B46014600202022012409E058
:1004800021FA02F59D4205D303FA02F5491B04FA4D
:1004900002F52844151EA2F10102F1DC30BD2DE960
:1004A000F05F0546002092469B46884606468146F8
:1004B00040241BE02846414647462246FFF780FE7F
:1004C00053465A46C01A914110D311461846224647
:1004D00000F0ACFA2D1A67EB01084F4622460120C6
:1004E000002100F0A3FA17EB00094E41201EA4F1F1
:1004F0000104DFDC484631462A464346BDE8F09F0A
:100500002DE9F04791460F4680460446002614F830
:10051000015B2DB100F0ACFA0068405DC007F6D178
:100520002B2D02D02D2D18D0641E4A463946204668
:1005300000F0A2FA27B13968A14201D1C7F80080C2
:1005400071054FF002040BD54042002803DD04F092
:10055000F3FC0460A007BDE8F08746F48066E4E79A
:100560000028F8DA04F0E8FC04606FF00040F2E7DD
:100570000029A8BF7047401C490008BF20F00100B7
:10058000704710B4B0FA80FC00FA0CF050EA010495
:1005900004BF10BC704749B1CCF1200421FA04F427
:1005A00011FA0CF118BF012121430843A3EB0C0100
:1005B000CB1D4FEA00614FEA102042BF002010BC63
:1005C000704700EBC35010440029A4BF10BC704713
:1005D000401C490008BF20F0010010BC704710B556
:1005E000141E73F1000408DA401C41F10001921856
:1005F0005B411A4301D120F0010010BD2DE9F04DFF
:1006000092469B4611B1B1FA81F202E0B0FA80F253
:100610002032904600F00AFA04460F4640EA0A00EB
:1006200041EA0B0153465A46084313D0114653EA98
:10063000010019D0C8F140025046FFF7C1FD054640
:100640000E4650465946424600F0F0F9084305D0A0
:10065000012004E020463946BDE8F08D0020054326
:1006600046EAE0762C4337430A986305E40AA0EB98
:1006700008000022FD0A44EA47540A3002D500204F
:100680000146E9E7010510196941DDE9084500194E
:100690006941BDE8F04DA2E72DE9FE4F804681EAB1
:1006A0000300C00F0C46009021F0004123F00045EC
:1006B000B8EB0200A94105D24046214690461C46AF
:1006C0000B46024623F00040104347D0270DC7F3E6
:1006D0000A00C3F30A510290401A019040286BDAD5
:1006E000C3F3130040F4801B0098924620B100230E
:1006F000D2EB030A63EB0B0B01985946C0F14002A1
:10070000504600F093F906460D4650465946019A68
:1007100000F09BF910EB08006141002487EA1152B8
:1007200084EAE7731A4340D0009A62B3019A012A1F
:100730004FEA075215DC001B61EB02014FF000424B
:1007400002EA0752CDE90042001C41F58011324611
:100750002B46FFF753FF03B0BDE8F08F404621461C
:10076000F9E7001B61EB0201001C41F58013001842
:100770005B412018A2F5001747EB030140EAD57052
:10078000B6196D4111E06D084FEA360645EAC075AD
:100790004FEA0752001B61EB0201001C41F580117A
:1007A00049084FEA30000019514132462B4603B048
:1007B000BDE8F04FFFF713BF00980122400000236F
:1007C000D0EB020263EBE073009821464FEAE0743D
:1007D000B8EB000061EB0401E9E783F000435BE75D
:1007E00081F0004158E72DE9FE4F81EA030404F04F
:1007F000004421F0004100944FF0000B23F000432F
:1008000050EA01045ED052EA03045BD0C3F30A54F9
:10081000C1F30A552C44A4F2F3340194A0FB025412
:10082000C1F3130141F48011C3F3130343F48013A4
:1008300001FB024400FB034E840A970A44EA8154F8
:1008400047EA8357A4FB076802958D0A05FB0785D5
:100850004FEA932C04FB0C542705029D4FEA0658DF
:1008600047EA1637B5EB08056EEB070C870E920EBC
:1008700047EA811742EA8312A7FB0201B6EB0B019C
:1008800064EB00042B0D43EA0C335E1844EB1C5060
:10089000DA465146E7FB0201C5F313044FEA0B3376
:1008A00043EA14534FEA0432019C43EA0603A4F1DD
:1008B0000C040294009CCDE900B4FFF79FFE03B046
:1008C000BDE8F08F00200146F9E72DE9F04D81EAFF
:1008D000030404F0004B21F0004514464FF0000AD9
:1008E00023F0004150EA050220D054EA01021DD055
:1008F000C5F30A570246C5F31303C1F31300C1F34E
:100900000A5640F4801543F48013A7EB0608101B29
:10091000D64608F2FD3873EB050002D308F1010852
:1009200001E092185B41B8F1000F03DA00200146A4
:10093000BDE8F08D00204FF48011064684460EE09D
:10094000171B73EB050705D3121B63EB0503064367
:100950004CEA010C49084FEA300092185B4150EA1A
:100960000107EDD152EA030012D082EA040083EAC3
:100970000501084305D0101BAB4106D2012200231C
:1009800006E000224FF0004302E06FF00102531036
:100990001AEB06004CEB085110EB0A0041EB0B017F
:1009A000BDE8F04DFFF71BBEC1F30A52C1F31301BE
:1009B00040F2FF3341F480119A4202DA00200146EE
:1009C000704740F233439A42A2F2334202DC524271
:1009D000FFF7F6BB00F02AB830B5041E71F1000431
:1009E00004DB4FF00044404264EB0101141E73F13C
:1009F000000405DB1C464FF00043524263EB040346
:100A0000994208BF904230BD064C074D06E0E068B1
:100A100040F0010394E8070098471034AC42F6D345
:100A2000FFF768FBEC8100080C820008202A04DB39
:100A3000203A00FA02F1002070479140C2F12003F1
:100A400020FA03F3194390407047202A06DBCB17A6
:100A5000203A41FA02F043EAE07306E041FA02F379
:100A6000D040C2F12002914008431946704700006F
:100A700000487047988100082DE9F05F82460078B1
:100A8000002715468B460AF10104B946302801D0EB
:100A90009DB113E014F8010B0127782803D05828E2
:100AA00001D045B10AE00DB1102D07D10027102566
:100AB00014F8010B02E0082500E00A250026B046E4
:100AC0000EE005FB080005FB06F1012701EB1046CF
:100AD0001FFA80F8B6F5803F00D3B94614F8010B31
:100AE000294600F018F80028EBDABBF1000F05D01A
:100AF0000FB1641E00E05446CBF80040B9F1000F7E
:100B000006D004F019FA02210160C81EBDE8F09F6A
:100B100048EA0640FAE73A2800D2303820F02002AE
:100B2000412A01D3A2F13700884201D34FF0FF30B0
:100B30007047FEE77FB50446002002900820009031
:100B4000012001900320074D03906946284600F0DC
:100B50004BFF2CB101220821284601F03AF87FBD55
:100B60000022F8E7000C01402DE9FF470025284648
:100B7000FFF7E0FF142005F043FE3D4E012208215F
:100B8000304601F026F81E2000F026FA00200190E1
:100B9000039008200090012002906946304600F042
:100BA00023FF0821304601F00FF805F051FD082120
:100BB000304601F009F82F4C28B125E0012000F063
:100BC0000BFA6D1CEDB20821304600F0FDFF08B9AC
:100BD000642DF3D3002504E0012000F0FDF96D1C25
:100BE000EDB20821304600F0EFFF012801D1642D5D
:100BF000F2D3002500F042F860556D1CEDB2052DD2
:100C0000F8D3322000F0E8F905F042FD277860784B
:100C1000A678E5783918721911442279C9B291423F
:100C200023D1A046FFF7C7FBDFF84C904946FFF7FA
:100C300079FB04463846FFF7BEFB2146FFF71AFB57
:100C4000C8F80C002846FFF7B6FB4946FFF76AFBD9
:100C500004463046FFF7AFFB2146FFF70BFBC8F811
:100C60000800012004B0BDE8F0870020FAE700008A
:100C7000000C0140C8000020CDCCCC3D2DE9F04156
:100C8000002425462646DFF86C8004E0012000F0B1
:100C9000A3F96D1CEDB208214746404600F094FFD1
:100CA00008B9642DF2D300251E2000F095F9082123
:100CB000B846384600F088FF012801D0002706E03A
:100CC000012704E0012000F087F96D1CEDB2082136
:100CD000404600F079FF012801D1642DF2D360066F
:100CE000761C0025F6B247EA1064082ED3D32046BE
:100CF000BDE8F081000C01400D48016821F08071D1
:100D00000160016841F0807101600A48016821F0CA
:100D100001010160016841F00101016000214160B1
:100D2000054806490068B0FBF1F0054908607047C6
:100D3000FCED00E0001000E03C00002040420F000D
:100D4000040000202DE9F1434FF46179DFF85C8065
:100D50004FF0E024009824E04D46A84200D8054614
:100D6000A66901F0A3FBB0FBF8F000FB1567002FAC
:100D700005DBA069B04211DAB842FADA0EE001F000
:100D800095FBB0FBF8F000EB4001C1EBC01007EBA6
:100D9000C001A069B042FCDD8842FADC0098401B2B
:100DA00000900028D8D1BDE8F883000040420F0031
:100DB00010B500F0CBF8442000F0D2F840F2EE205D
:100DC00005F01EFD00F0C2F8BE2000F0C9F800F0EA
:100DD00071F8044600F06EF8000201B251EA040016
:100DE0006FF0030401D5C043401CFFF7E9FA224627
:100DF000FFF7CAFABDE81040FFF71FBB10B500F0BF
:100E00001DF801220221044800F0E3FE00F084F8FE
:100E1000BDE8104000F022B8000801401FB50020D6
:100E20000190039002200090012002906946024840
:100E300000F0DAFD1FBD0000000801401FB50020D2
:100E40000290022000900120019003200390694647
:100E5000014800F0C9FD1FBD0008014070B5002425
:100E6000FFF7DCFF124D04E0641CE4B20120FFF741
:100E700069FF0221284600F0A7FE10B1642CF3D3CD
:100E80000FE0642C0DD2002404E0641CE4B20120C5
:100E9000FFF758FF0221284600F096FE18B1F02C0B
:100EA00004D3012070BDF02CEFD3FAE7002070BD11
:100EB000000801402DE9F0410026164F354600BFDD
:100EC00005F0C6FBFFF7BAFF00220221384600F00A
:100ED00080FE0220FFF736FFFFF7A0FF0A20FFF792
:100EE00031FF0221384600F06FFE01280FD00024A8
:100EF00005F0CEFB3220FFF725FFAC4034436D1CDC
:100F0000EDB2E6B2082DDBD33046BDE8F081012416
:100F1000EEE700000008014010B5FFF78FFF0A4C14
:100F200000220221204600F054FE40F2EE20FFF79E
:100F300009FF01220221204600F04BFEBDE81040CF
:100F40000F20FFF7FFBE00000008014010B5FFF7BB
:100F5000E3FFFFF783FFBDE81040CC20AFF3008034
:100F600070B50546FFF76AFF194E002415F0010F12
:100F70004FEA550512D005F06BFB002202213046E6
:100F800000F027FE0220FFF7DDFE0122022130469D
:100F900000F01FFE05F07CFB3C2011E005F058FB43
:100FA00000220221304600F014FE4120FFF7CAFE65
:100FB00001220221304600F00CFE05F069FB022000
:100FC000FFF7C0FE641CE4B2082CCFD370BD000054
:100FD000000801407047000004494A68044B1B6840
:100FE00058434B689B1A8342FBD37047001000E0C4
:100FF0000400002010B54FF400710348FFF709F911
:1010000002490020088010BDA80A00202E00002000
:10101000F0B5594CA1B0206818B9012005F0DEFDEB
:10102000206056A003F054FF4FF4FA752A465FA1E2
:1010300060A000F0F3FAAE00324661A161A000F0BA
:10104000EDFA40F6B837384605F0DAFBFFF7D2FF85
:101050006C0022465AA15DA000F0E0FA224658A199
:101060005DA000F0DBFA60A161A003F031FF69A38D
:101070005DA26BA1684603F03BFF44F620626DA1C0
:10108000684600F0CBFA002820D06CA003F020FFC7
:1010900005F0E4FC6FA003F01BFF304605F0B0FB49
:1010A00040F25B76324678A17BA003F011FF334615
:1010B00075A281A1684603F01BFF42F2107285A160
:1010C000684600F0ABFA002820D118E083A003F0B6
:1010D000FFFE8A498AA003F0FBFE90A18748FFF734
:1010E000A3F808B18FA005E09DA18448FFF79CF804
:1010F00010B19DA003F0ECFE05F0C8FC20E02246F4
:101100002FA1002000F08AFA00282DD0A3A003F020
:10111000DFFE204605F074FB04F06CFBFFF76AFF6E
:1011200002F07EFE384605F06BFBA2A17348FFF784
:101130007BF840B1A1A003F0CBFE00BF04F074FB2C
:10114000002021B0F0BDABA003F0C2FE04F052FBC2
:10115000284605F055FB0021ADA002F02FFF2046E8
:1011600005F04EFB0120ECE7ADA003F0B1FE6349B2
:1011700063A003F0ADFEE1E7100000200D0A5B451F
:1011800053505D2053746172742F526573657420DF
:10119000436F6E6E656374696F6E207365717565FC
:1011A0006E63652E2E2E0D0A000000004552524F30
:1011B0005200000041542B434950434C4F534500CB
:1011C0004F4B000041542B525354000041542B43C9
:1011D000574D4F44453D310041542B4357415554E1
:1011E0004F434F4E4E3D30004D696E657276610043
:1011F0005B4553505D20436F6E6E656374696E6727
:1012000020746F20576946693A2025732E2E2E0DC3
:101210000A000000796B663034303530350000004C
:1012200041542B43574A41503D222573222C2225FD
:1012300073220000474F5420495000005B45535033
:101240005D205769466920436F6E6E6563746564FF
:101250002E0D0A005B4553505D2057616974696E1D
:101260006720327320666F7220544350205374619C
:10127000636B2073746162696C697A6174696F6E03
:101280002E2E2E0D0A000000382E3133372E313627
:10129000382E3230390000005B4553505D20436FDB
:1012A0006E6E656374696E6720746F2025733A25CE
:1012B000642E2E2E0D0A000041542B4349505354E6
:1012C0004152543D22544350222C222573222C2576
:1012D00064000000434F4E4E454354005B4553505D
:1012E0005D205769466920436F6E6E6563742046C2
:1012F00061696C6564210D0A00000000A80A0020E5
:101300005B44656275675D2045535020526573707C
:101310006F6E73653A2025730D0A00004E6F2041F1
:10132000500000005B416E616C797369735D20450C
:1013300072726F723A2043616E6E6F742066696ECE
:101340006420535349442028436865636B20322E40
:1013500034472F416E74656E6E61290D0A000000DE
:101360004641494C000000005B416E616C79736935
:10137000735D204572726F723A2050617373776F9C
:1013800072642057726F6E67206F72205369676EA8
:10139000616C207765616B0D0A0000005B4553505E
:1013A0005D2054435020436F6E6E65637465642EF8
:1013B0000D0A0000434C4F53454400005B457272D8
:1013C0006F725D2053657276657220636C6F736512
:1013D0006420636F6E6E656374696F6E2E202841A2
:1013E000757468204661696C65642E2E2E290D0A7D
:1013F000000000005B537563636573735D204D519E
:10140000545420436F6E6E6563746564210D0A0049
:10141000686F6D652F73656E736F722F636D6400F7
:101420005B4553505D2054435020436F6E6E65639F
:1014300074204661696C65642E2028436865636B7F
:1014400020436F64652054696D656F75742E2E2E70
:10145000290D0A00014601A002F06CBD686F6D65A0
:101460002F73656E736F722F6461746100000000EA
:101470002DE9F04104460E4615461046FEF7E6FEFD
:101480000104090C18D08E4216D30023721A11E001
:10149000002006E01E182F5CA65DBE4203D1401C52
:1014A00080B28842F6D3884202D1E018BDE8F081CC
:1014B0005B1C9BB29A42EBDA0020F7E710B5244C94
:1014C0002188002942D023A22548FFF7D1FF28B95F
:1014D00024A221882248FFF7CBFF58B124A003F0B3
:1014E000F7FC2D4803F0F4FC2CA003F0F1FC04F011
:1014F000C5F927E033A221881948FFF7B9FF30B9B1
:1015000033A221881648FFF7B3FF00280BD018A09C
:1015100003F0DEFC31A003F0DBFC20A003F0D8FCDC
:1015200004F0BEF90EE03BA221880D48FFF7A0FFB2
:1015300028B1401DFEF791FE401E092802D32088E5
:10154000FA2803D9BDE81040FFF754BD10BD0000D4
:101550002E0000202272656C6179223A3000000072
:10156000A80A00202272656C6179223A20300000BE
:101570000D0A3D3D3D3D3D3D3D3D3D3D3D3D3D3DFE
:101580003D3D3D3D3D3D3D3D3D3D3D3D3D3D3D3D8B
:101590003D3D3D3D3D0D0A009C8100083D3D3D3DEA
:1015A0003D3D3D3D3D3D3D3D3D3D3D3D3D3D3D3D6B
:1015B0003D3D3D3D3D3D3D3D3D3D3D3D3D3D3D0D8B
:1015C0000A0000002272656C6179223A3100000045
:1015D0002272656C6179223A203100005B4D5154D2
:1015E000542052585D20E68890E58A9FE68D95E864
:1015F0008EB7E68C87E4BBA4202D3E20E29AA12082
:10160000E681A2E5A48DE9809AE794B520284F4EA3
:10161000290D0A002B4950442C000000F8B504465F
:101620002C4815460E4603681868586800901868DC
:101630005868009018685868009018685868284FD3
:10164000009025A239882748FFF712FF28B926A263
:1016500039882448FFF70CFF20B1642005F0D0F84A
:10166000FFF72CFFFFF7C6FC01222149194801F0C2
:10167000D3FC74B12046FEF7E9FD82B26423214613
:10168000144801F015FD642302221AA1114801F04B
:101690000FFD002419E031461248FEF7C5FD08B1E0
:1016A0000120F8BD0CA239880E48FFF7E1FE28B9E9
:1016B0000DA239880B48FFF7DBFE08B1FFF7FEFEED
:1016C000322005F09DF83234A4B2AC42E3D30020BE
:1016D000F8BD0000180A00202B4950442C000000DF
:1016E0002E000020A80A002072656C6179000000BD
:1016F0002C0000200D0A0000F0B51D4C074689B0F3
:1017000020680E46002518B9012005F067FA206010
:1017100041F2883105F000FD012805D015A003F045
:10172000D7FB09B02846F0BD32461AA1684603F03F
:10173000DFFB4FF4FA621BA16846FFF76FFF60B151
:101740004FF47A7332463946174801F0B1FC4FF432
:10175000967005F055F8012502E014A003F0B8FBDF
:1017600000231A461946206805F0DCFAD9E7000084
:10177000100000205B4553505D20427573793A207C
:101780005061636B65742044726F707065640D0AFC
:101790000000000041542B43495053454E443D2521
:1017A000640000003E000000180A00205B45535012
:1017B0005D204572726F723A205761697420273E2E
:1017C00027206661696C65642E20436F6E6E6563C9
:1017D00074696F6E206C6F73742E2E2E0D0A0000CC
:1017E00072B6FEE710B590F821100022022905D04C
:1017F0000421816380F82020012010BD01680B685E
:1018000023F00E030B6001680B6823F001030B60EB
:1018100090F84030C46B012101FA03F3636080F853
:10182000211080F82020104610BD000010B590F85F
:1018300021100024022903D00421816301243DE00A
:1018400001680A6822F00E020A6001680A6822F044
:1018500001020A601A4A0168914201D1012121E086
:10186000174A1432914201D110211BE0144A283248
:10187000914201D1891515E0114A3C32914201D1C2
:1018800089140FE00E4A5032914202D14FF4803158
:1018900008E00B4A6432914202D14FF4801101E01A
:1018A0004FF08071064A083A5160012180F82110FA
:1018B000002180F82010416B01B18847204610BDFF
:1018C00008000240806B704790F8210070470000CC
:1018D0002DE9F04300233E4F0F2573E001229A408B
:1018E0000A406DD023F00304E619D6F808809C075F
:1018F0004FEA147C05FA0CF909EA0804DFF8D480F1
:10190000404502D14FF0000816E0DFF8CC8040459A
:1019100002D14FF001080FE0DFF8C080404502D14E
:101920004FF0020808E0DFF8B880404502D14FF0E0
:10193000030801E04FF0040808FA0CF8A04522D192
:10194000284CD4F800C02CEA020CC4F800C0241DB6
:10195000D4F800C02CEA020CC4F800C0214C0C34AE
:10196000D4F800C02CEA020CC4F800C0241FD4F83C
:1019700000C02CEA020CC4F800C0D6F808C02CEA5B
:10198000090CC6F808C0FF2A01D8064601E000F19C
:1019900004064FEA830401D9A4F12004D6F800C05C
:1019A00005FA04F82CEA080C4FF0040808FA04F8C9
:1019B0004CEA080CC6F800C0C46824EA0204C460FB
:1019C00003F1010331FA03F288D1BDE8F08300008E
:1019D0000000014000080140000C014000100140DF
:1019E00000140140000401402DE9F84FDFF8B891E0
:1019F0000024A9F1040B23460F2709F1040AABF1D7
:101A0000040EC9E00125A5402A40AA427DD1674EB7
:101A1000D1F804C0ACEB0608B44532D014DCBCF1FC
:101A2000030F3AD009DCBCF1000F2AD0BCF1010F42
:101A30001CD0BCF1020F31D11DE0BCF1110F17D049
:101A4000BCF1120F2AD119E0B8F5881F19D006DCB5
:101A5000B8F5803F15D0B8F5801F1FD111E0B8F55B
:101A6000001F0ED0B8F5041F18D10AE0CB6815E0AE
:101A7000CB681B1D12E0CB6808330FE0CB680C333A
:101A80000CE08B682BB1012B4FF0080303D04561AC
:101A900004E0042302E0056100E00023FF2A01D8EE
:101AA000064601E000F104064FEA840501D9A5F1DC
:101AB0002005D6F8008007FA05FC28EA0C0803FA8E
:101AC00005F548EA0508C6F800804D68ED0062D5C6
:101AD000374DAE6946F00106AE61AD6924F00306EC
:101AE00005F001050095334D06EB050CDCF80850B8
:101AF000A607360F07FA06F825EA0805DFF8B880CA
:101B0000404503D14FF0000817E044E0DFF8AC8017
:101B1000404502D14FF001080FE0DFF8A4804045B6
:101B200002D14FF0020808E0DFF89880404502D16A
:101B30004FF0030801E04FF0040808FA06F848EAFD
:101B40000508CCF808804D68D9F80060ED024D46D4
:101B500001D5164300E096432E604D68DAF8006028
:101B6000AD02554601D5164300E096432E604D6800
:101B7000DBF80060AD035D4601D5164300E09643F7
:101B80002E604D68DEF80060ED03754601D5164302
:101B900000E096432E60641C0D682A46E5407FF401
:101BA00031AFBDE8F88F00000804014000001110BB
:101BB000001002400000014000080140000C0140FC
:101BC00000100140001401408068084000D001204E
:101BD00070470AB1016170470904FBE7014880685A
:101BE0007047000030000020704770472DE9F04139
:101BF000016804464A694E6890F83E000025D743C4
:101C0000FA050BD4F243D20508D46FF48072012593
:101C10004A6121680A6842F400420A60B90508D4A2
:101C2000F143C90505D422686FF4007145F002053F
:101C30005161790525D4F143C90522D4638D94F807
:101C40003D10226B202808D13BB9212910D0292929
:101C50000ED0282901D1212A0AD022686FF4806190
:101C6000516145F00405102806D0402804D008E052
:101C7000204601F0E1FE04E02068016841F40071B3
:101C80000160380508D4F043C00505D421686FF41D
:101C9000006045F008054861002D07D0206C2843FE
:101CA00020642046BDE8F04101F0C6BABDE8F081ED
:101CB0002DE9F047026800215368C66A90F83E405B
:101CC00090F83D50102C12D0402C10D0046C002CF9
:101CD0007DD05469E443A6077AD4DE43B60577D4B1
:101CE000036C03B19169BDE8F04701F081BE9769CB
:101CF00051694FF42A0CC9435FEAC1784FF02A4971
:101D000004D066452AD04E4528D010E0DE43B60503
:101D10000DD4C16A614501D1012103E0C16A494581
:101D200001D10821C162BDE8F04701F0C7BD0E072F
:101D300016D4DE43B60513D4416CC9B21161416BB0
:101D400009B1896A29B9816B002907D0896A0029FC
:101D500004D00068416841F400614160BDE8F0874B
:101D60008E0706D4DE43B60503D4BDE8F04701F084
:101D7000F9BCFE43526876074FEA02521DD4002A8E
:101D8000ECDB0A0608D4DA43520505D4490705D529
:101D9000BDE8F04701F08ABC4907DFD4D943890583
:101DA000DCD4212D05D0402CD8D1BDE8F04701F07E
:101DB000CBBDBDE8F04701F037BC002ACEDB4A06B8
:101DC0000BD4DA43520508D4490708D501E00DE0E9
:101DD0000EE0BDE8F04701F05FBB4907BED4D94330
:101DE0008905BBD4BDE8F04701F0E9BA916970E715
:101DF000E10606D4D943890503D4BDE8F04701F0D4
:101E000063BE2821212D27D0292D25D0650655D444
:101E1000DD436D0552D4640752D590F83D30448DB2
:101E2000002C9BD01269446A2270426A521C4262A2
:101E3000428D521E4285428D002A8FD12A2B8DD190
:101E40000268536823F4806353602222026380F89F
:101E50003D1000F0E5F981E7250623D4DD436D054B
:101E600020D4640720D590F83D30448D002CF2D06A
:101E7000446A24781461426A521C4262428D521EA6
:101E80004285428D002AE6D1292BE4D102685368AD
:101E900023F4806353602122026380F83D1000F038
:101EA000C0F95BE76107D6D4D9438905D3D4418D06
:101EB0000029D0D0416A097811610AE06107CAD4CB
:101EC000D9438905C7D4418D0029C4D01169426A1C
:101ED0001170416A491C4162418D491E41853DE7AF
:101EE0007047000070B5040025D094F83D0000252F
:101EF00020B984F83C50204600F054F9242084F89E
:101F00003D002068016821F001010160206801683E
:101F100041F4004101602068016821F40041016042
:101F200000F0CAFA4D4A6168914201D84C4900E07C
:101F30004C49884201D2012070BD4B492368B0FB57
:101F4000F1F15E6826F03F060E435E6063689342DF
:101F500006D94FF4967359434FF47A73B1FBF3F1FA
:101F60002368491C1E6A26F03F06314319626168E6
:101F7000914210D84900401EB0FBF1F2521CC2F34E
:101F80000B02042A01D2042022E0B0FBF1F0401C35
:101F9000C0F30B001CE0A268F2B301EBC10303EB3A
:101FA0000116431EB3FBF6F35B1C43F480431B0591
:101FB00049D092B301EBC10202EB0111401EB0FB0C
:101FC000F1F0401CC0F30B0040F4804040F40040AE
:101FD0002168CA694CF6FF739A431043C861D4E97B
:101FE000071001432068026822F0C002114301601B
:101FF000D4E9030101432068826848F2FF339A4321
:1020000011438160D4E9050108432168CA6822F0C0
:10201000FF021043C86001E00EE016E0206801688E
:1020200041F0010101602564202084F83D00256312
:1020300084F83E50002070BD01EB4106431EB3FB07
:10204000F6F35B1CB3E70120C2E701EB4101401E40
:10205000B0FBF1F0401CC0F30B00B7E7A086010015
:1020600080841E0000093D0040420F007047704709
:10207000704700002DE9F84F1F4690468A460446F7
:10208000DDF82890FFF7AAFD054694F83D002028CA
:102090007FD11923012240492046009501F0EEFD31
:1020A000002876D194F83C00012872D0012084F8F1
:1020B0003C0020680168C90703D1016841F00101B3
:1020C00001602068016821F400610160212084F82A
:1020D0003D00102084F83E0000262664C4F82480C9
:1020E0006785608D20852D48E0622B464A46514623
:1020F000204601F04BFA90B9206841698069009050
:1021000036E02A464946204601F05EFE50B1206C7A
:10211000042804D12068016841F4007101600120A5
:10212000BDE8F88F606A216800780861606A401C29
:102130006062618D491E6185218D491E89B22185AC
:1021400022685369DB435B070BD451B100781061FF
:10215000606A401C6062608D401E6085208D401E5C
:1021600020852A464946204601F05CFD0028CED154
:10217000208D0028C5D154F83D0B016841F4007151
:102180000160202004F81E09E67766770020C7E783
:10219000FFE70220C4E70000020010000000FFFF7C
:1021A0007047704710B586B00021009101910291EF
:1021B00003910068174988422AD1174CA06940F062
:1021C0000800A061A069694600F008000490C020E2
:1021D000009012200190032003901048FFF704FCA8
:1021E000E06940F40010E061E069002200F40010B2
:1021F000049005211F2000F091F81F2000F081F8C5
:1022000000220521202000F089F8202000F079F834
:1022100006B010BD0054004000100240000C014008
:1022200070477047024881680278114481607047A6
:1022300030000020074810B5016841F0100101602E
:10224000032000F08BF80F2000F006F800F024F8CF
:10225000002010BD0020024070B50D4D04464FF423
:102260007A712878B1FBF0F00A490968B1FBF0F007
:1022700000F0F8FA48B9102C07D200222146501E6F
:1022800000F04CF800206C6070BD012070BD0000B3
:10229000300000203C0000200F4808B5816941F063
:1022A00001018161816901F001010091C16941F081
:1022B0008051C161C069002200F0805000900F2160
:1022C000901E00F02BF80548416821F0E06141F0D4
:1022D0000071416008BD0000001002400000014094
:1022E00000280DDB00F01F02012191404009800011
:1022F00000F1E020C0F88011BFF34F8FBFF36F8F64
:102300007047002809DB00F01F02012191404009BD
:10231000800000F1E020C0F800117047F0B40E4BCF
:102320001B680C46C3F30223C3F10705042D00D933
:102330000425191D072901D2002300E0DB1E012618
:1023400006FA05F1491E214099409E40761E16402E
:102350003143F0BC02F0E0BD0CED00E0064900F0B6
:10236000070208684FF6FF03184040EA0220034ABC
:1023700010430860704700000CED00E00000FA0513
:102380002DE9F0470F46050061D0434E306800F05C
:102390000700B84209D2306820F0070038433060A7
:1023A000306800F00700B84251D128683B4C8107E3
:1023B00012D5400703D5606840F4E060606028787B
:1023C000000703D5606840F4605060606068A968E9
:1023D00020F0F000084360602878C00728D06868C3
:1023E000012810D02168022810D0890700292EDA90
:1023F000616821F0030101436160FFF7EFFB804654
:1024000041F288390DE021688903EFE78901EDE7A2
:10241000FFF7E4FBA0EB0801494502D90320BDE822
:10242000F0876068696800F00C00B0EB810FEFD1B5
:10243000306800F00700B8420BD9306820F0070080
:1024400038433060306800F00700B84201D0012006
:10245000E5E72878400705D56068E96820F4E06082
:10246000084360602878000706D56068296920F471
:10247000605040EAC100606000F03EF86168084AC0
:10248000C1F30311515CC840064908600648006862
:10249000FFF7E2FE0020C2E70020024000100240E9
:1024A000FE8000083C000020340000200148006845
:1024B000704700003C000020044805490068496856
:1024C000044AC1F30221515CC84070473C0000201F
:1024D000001002400E810008044805490068496860
:1024E000044AC1F3C221515CC84070473C0000203F
:1024F000001002400E8100080E4A51680E4801F09B
:102500000C03042B11D0082B0FD10C48C1F38343CB
:10251000C903C05C0AD55168084AC1F34041921E04
:10252000515C054A5043B0FBF1F070470449484301
:10253000704700000010024000127A00EE80000890
:1025400000093D002DE9F84F040070D02078C04DFF
:10255000C00749D06868C0F38100012807D06868C7
:10256000C0F38100022809D16868C00306D5286835
:10257000800339D560680028E7D035E06068B0F5A1
:10258000803F0BD010B1B0F5A02F11D0286820F4F7
:1025900080302860286820F4802002E0286840F419
:1025A00080302860606890B1FFF718FB06460AE0AB
:1025B000286840F480202860F0E700BFFFF70EFB9A
:1025C000801B642873D828688003F7D50CE0FFF7D8
:1025D00005FB064605E000BFFFF700FB801B6428F3
:1025E000F0D828688003F7D420789A4E80074FF0FF
:1025F00001094FF0000839D5686810F00C0F07D0BA
:102600006868C0F38100022809D16868C00306D455
:102610002868800714D52069012808D110E02069B6
:10262000B0B1C6F80090FFF7D9FA074605E00AE115
:10263000FFF7D4FAC01B0228C4D828688007F7D552
:102640002868616920F0F80040EAC10028600DE0C8
:10265000C6F80080FFF7C2FA074604E0FFF7BEFAAB
:10266000C01B022823D828688007F7D420780007E9
:102670002CD57948A169D9B1C0F80090FFF7AEFA1E
:10268000074604E0FFF7AAFAC01B02280FD8686AC1
:102690008007F7D571484FF4FA510068B0FBF1F0AC
:1026A000009000BF0098411E0091FAD20EE080E039
:1026B000C0F80080FFF792FA074604E0FFF78EFAB1
:1026C000C01B022875D8686A8007F7D420784007B5
:1026D00060D5E8690027C00008D4E86940F0805060
:1026E000E861E869012700F0805000905C480168CB
:1026F000C90513D40168834641F480710160FFF776
:102700006DFA824606E000BFFFF768FAA0EB0A0008
:1027100064284ED8DBF80000C005F5D5E068012834
:102720000AD008B1052813D0286A20F001002862D9
:10273000286A20F0040002E0286A40F001002862C4
:10274000E06841F2883B98B1FFF748FA82460BE017
:10275000286A40F004002862EEE700BFFFF73EFA67
:10276000A0EB0A0159455AD8286A8007F6D50CE033
:10277000FFF734FA824605E0FFF730FAA0EB0A01D2
:1027800059454CD8286A8007F6D41FB1E86920F073
:102790008050E861E06988B36968C1F3810102296A
:1027A00044D00228C6F8608004D0FFF717FA044628
:1027B00038E034E0FFF712FA074604E0FFF70EFABC
:1027C000C01B02282BD828688001F7D4206AB0F5F6
:1027D000803F05D16868A16820F400300843686034
:1027E000D4E908010843696821F47411084368605A
:1027F000C6F86090FFF7F2F9044606E025E000BF56
:10280000FFF7ECF9001B022809D828688001F7D5EA
:102810001BE000BFFFF7E2F9001B022802D90320EA
:10282000BDE8F88F28688001F4D40EE00128F7D0C5
:102830006868226A00F48031914204D1616A00F430
:102840007010884201D00120EAE70020E8E700008C
:102850000010024000004242800442423C0000203E
:102860000070004010B5401EB0F1807F01D3012000
:1028700010BD4FF0E02460610F21601702F04CFBA7
:102880000020A06107202061002010BD70B590F8E5
:102890003C20012A26D0012480F83C40022280F806
:1028A0003D2003685A689D6822F070060A6832432A
:1028B0005A600D4B02689A4208D0B2F1804F05D0A1
:1028C0000A4B9A4202D00A4B9A4204D1496825F039
:1028D00080031943916080F83D40002180F83C104E
:1028E000084670BD022070BD002C0140000400406D
:1028F0000008004010B5040003D094F83D0010B16A
:1029000007E0012010BD002084F83C00204600F0C4
:102910001FF8022084F83D00211D206802F012F902
:10292000012084F8460084F83E0084F83F0084F8D3
:10293000400084F8410084F8420084F8430084F8A1
:10294000440084F8450084F83D00002010BD0000DC
:1029500008B500680649884208D10648816941F4F3
:1029600000618161806900F40060009008BD000092
:10297000002C01400010024070B5044690F83C0065
:102980000025012817D0012684F83C60022084F835
:102990003D002068826822F0770222F47F42826044
:1029A0000868502838D00DDC20284FD005DC90B3C3
:1029B000102811D14AE0022070BD302846D04028AE
:1029C0000AD13BE060282FD070280DD0B0F5805F91
:1029D00003D0B0F5005F12D0012584F83D600020DF
:1029E00084F83C00284670BDCB68D1E901212068FD
:1029F00002F0E4F82068816841F0770109E0CB68D3
:102A0000D1E90121206802F0D9F82068816841F4F9
:102A100080418160E1E719E0CA684968206802F0F6
:102A2000DFF85021206806E0CA684968206802F093
:102A3000E8F86021206802F0CBF8CEE7CA68496860
:102A4000206802F0CDF840212068F4E722680146B2
:102A50001046F0E7704770B5044620680C3050E827
:102A6000001F21F4907140E80012002AF5D120687F
:102A7000143050E8001F21F0010140E80012002A44
:102A8000F5D1206B012809D120680C3050E8001FD7
:102A900021F0100140E80012002AF5D120684069B9
:102AA0004FF00005400615D52068143050E8001F8F
:102AB00021F0400140E80012002AF5D1E06B48B156
:102AC0004563E06BFEF78EFE20B1E06BFEF7FAFE89
:102AD000202806D0E585202084F8420025630020C8
:102AE00070BD10206064032070BD10B5040015D0C7
:102AF000242084F841002068C16821F40051C1609D
:102B0000204600F0B3F90020606484F8410084F8A6
:102B1000420044F8300F6060207410BD012010BDE9
:102B200038B50446194A0168002091421DD10A684F
:102B30004A6800920A684A6800920A684A680092E5
:102B40000A684968124A00915188B1F5FF7F06D89A
:102B5000104B15785D54491C89B2518058540D486A
:102B600001220B49903800F057FA0B49206888423F
:102B70000BD10168416800910168416800910168CA
:102B80004168009101684068009038BD00440040F1
:102B90002C000020A80A002000480040F8B5016879
:102BA00004460868CA684B6910F00F0F4FF0000523
:102BB00059D003F0010602F49077374365D0C1077E
:102BC00005D0D10503D5616C41F001016164410775
:102BD00005D5D90703D0616C41F00201616481071A
:102BE00005D5D90703D0616C41F004016164010788
:102BF00007D502F02001314303D0616C41F0080198
:102C00006164616C00293AD0800604D5900602D533
:102C1000204602F037F820684069616CC0F38010EC
:102C2000090700D460B3204602F005F82068406927
:102C3000400621D52068143050E8001F21F04001E3
:102C400040E80012002AF5D1E06BA8B16D4941635C
:102C5000E06BFEF7EBFD002811D0E06B416B01B09B
:102C6000BDE8F040084783060FD593060DD52046F2
:102C7000BDE8F84002F006B82046FFF751FFF8BD66
:102C80002046FFF74DFF6564F8BD266B2023012E1B
:102C90007CD1C6067AD5D60678D5086848680090F3
:102CA00048694FF00206400640D5E16B086840686D
:102CB0000004000CE8D0A28D8242E5D9E085886945
:102CC00020282DD020680C3050E8001F21F480719E
:102CD00040E80012002AF5D12068143050E8001FA7
:102CE00021F0010140E80012002AF5D120681430DB
:102CF00050E8001F21F0400140E80012002AF5D101
:102D000084F84230256320680C3050E8001F21F021
:102D1000100140E80012002AF5D1E06BFEF762FDD9
:102D20006663A08DE18D401A81B22AE0A08DE18D0D
:102D3000401A81B2E08D0028A6D00029A4D02268D4
:102D40000C3252E8000F20F4907042E80007002F88
:102D5000F5D12068143050E8002F22F0010240E83D
:102D60000027002FF5D184F84230256320680C300D
:102D700050E8002F22F0100240E80023002BF5D18C
:102D800066632046FFF766FEF8BDFFE705062BD514
:102D9000150629D594F841002128F5D1A068B0F591
:102DA000805F01D12069B0B1206A411C2162216895
:102DB00000784860E08C401E0004000CE084E3D101
:102DC0002068C16821F08001C1602068C16841F0BD
:102DD0004001C160D8E7206A0088C0F3080048605D
:102DE000206A801C2062E5E74006CDD55006CBD591
:102DF000CA68204622F04002CA6084F8413000F0E0
:102E0000A7F9C1E7274C000870B5040004D094F876
:102E10004100002510B106E0012070BD84F840504B
:102E2000204600F05FF8242084F841002068C16843
:102E300021F40051C160204601F086FF206801693D
:102E400021F4904101612068416921F02A0141612A
:102E50002068C16841F40051C1606564202084F895
:102E6000410084F842006563002070BD10B5174B27
:102E70000268174917489A4209D18A6922F48042A8
:102E80008A614FF4C061FEF723FD252018E0124B44
:102E90009A4208D1CA6922F40032CA610C21FEF7B5
:102EA00017FD26200CE00D4882420DD1C86920F4A0
:102EB0008020C8614FF440610948FEF709FD2720D2
:102EC000BDE81040FFF70CBA10BD0000003801400B
:102ED000001002400008014000440040004800404B
:102EE000000C0140F0B585B00024009401940294D8
:102EF00003940368424F022042490322424D460296
:102F0000BB4225D18B6943F480438B618B6903F409
:102F1000804304938B6943F004038B6189690392B6
:102F200001F0040104910102CDE900106946284630
:102F3000FEF75AFDCDE90064694628460294FEF783
:102F400053FD002205212520FFF7E8F9252028E080
:102F50002E4FBB4229D1CB6943F40033CB61CB69FF
:102F600003F4003304938B6943F004038B61896994
:102F7000039201F0040104910421CDE90010694697
:102F80002846FEF731FD0820CDE9000469462846B1
:102F90000294FEF729FD002205212620FFF7BEF945
:102FA0002620FFF7AEF905B0F0BD194DAB42FAD1BE
:102FB000CB6943F48023CB61CB6903F48023049372
:102FC0008B6943F008038B618969124D01F0080198
:102FD000CDE90321CDE9006069462846FEF704FDEE
:102FE000E814CDE90004694628460294FEF7FCFC8B
:102FF000002205212720FFF791F92720D1E70000C3
:103000000038014000100240000801400044004028
:1030100000480040000C014090F84230202B01D0C5
:103020000220704721B11AB10023036301F0E8BE0A
:103030000120704738B504460068174900258842CA
:1030400011D1164A5188B1F5FF7F06D8144813787C
:103050004354491C89B251804554114801220F49FB
:103060009038FFF7D9FF0F492068884213D10E48E6
:10307000016800290FD000956946006803F061FFE0
:103080000098002807D009494FF080500860BFF32E
:103090004F8FBFF36F8F38BD004400402C000020DD
:1030A000A80A0020004800400800002004ED00E0CD
:1030B0002DE9F843044690F84100984616460D461F
:1030C000202802D00220BDE8F88385B17EB100201F
:1030D0006064212084F84100FEF780FDA6848146CB
:1030E000E684A0682027B0F5805F02D003E00120CD
:1030F000E9E7206910B12E4600250EE000260CE01D
:103100008021204601F097FEA8B9C6B116F8010B40
:1031100021684860E08C401EE084E08C4B464FF014
:103120000002CDF800800028EAD14FF0400120468F
:1031300001F081FE40B184F841700320C3E735F807
:10314000020BC0F30800E3E784F841700020BAE7FF
:103150007047FEE70148FEF749BD00003409002032
:103160000148FEF7A5BD00003409002038B5406ACB
:10317000002190F83D202B4B46F2A8141B68B3FBAE
:10318000F4F3C3EBC30303EB830300933BB15B1E78
:10319000009303681B689B0505D5009BF6E7036C4D
:1031A00043F020030364436B03B19962836B03B163
:1031B000996203681C6824F480641C604185436B39
:1031C00003B15963836B03B1596303681C6824F02E
:1031D00001041C6090F83D402023602C0BD0282473
:1031E00034EA02020FD080F83D3080F83E1000BF74
:1031F000FEF776FE38BD80F83D3080F83E10016461
:10320000FEF7F2FC38BD0268136843F00103136057
:103210000268136843F480631360016380F83D40E3
:10322000E6E700003C00002000684169C943090648
:1032300001D400210161704770B5044690F83D004B
:1032400094F83E10102901D0402906D1222804D13B
:1032500021680A6822F400620A60282131EA00022B
:103260004FF000054FF0200626D021684968090577
:1032700005D4602803D084F83D6084F83E5025636F
:1032800020684168090537D5416821F40061416033
:10329000606B90F821203C49012A11D04163606B9A
:1032A000FEF7C4FA38B32068016821F0010101601B
:1032B00084F83D60606B1CE0256384F83D10DFE717
:1032C000A06B4163A06BFEF7B1FAA0B12068416921
:1032D000C943490605D40069616A0870606A401CE8
:1032E00060622068016821F00101016084F83D609E
:1032F000A06B416B884710E094F83D10602910D016
:103300004169C943490605D40069616A0870606A69
:10331000401C60622046FEF7E3FD206CC1071CD113
:1033200015E084F83D6025644169C943490605D428
:103330000069616A0870606A401C60622068016808
:1033400021F0010101602046FEF74EFCE5E7810710
:1033500003D4410701D4000704D52068416821F453
:10336000E061416094F83D00216C49070BD52828A5
:1033700009D10648E062256384F83D6084F83E5038
:103380002046FEF773FE70BD6D3100080000FFFFA0
:1033900001684A69D24352050FD46FF480624A61D2
:1033A000002140F8301F202242738173026942F0ED
:1033B000040202610173012070470020704710B5BC
:1033C000C26A438D0168042B06D0438D032B08D0BD
:1033D000438D022B1DD012E04A6822F480624A60BD
:1033E0000CE04B6823F480634B60042A06D0022A69
:1033F00004D001680A6822F480620A6001680969E1
:10340000426A1170416A491C4162418D491E4185E1
:1034100010BD012A34D0102A32D0042A34D0022A16
:1034200032D00B6843F400730B6001680969436A8A
:103430001970416A491C4162438D5B1E43850368D4
:103440001B690B70416A491C4162418D491E4185CF
:1034500001684B6823F440734B60202180F83D10D5
:1034600090F83E300021402B80F83E1010D0082A02
:1034700002D0202A00D012210163FEF7F8FD10BD12
:103480000B6823F48063CFE70B6843F48063CBE7DA
:103490000163FEF785FE10BD38B590F83D10222976
:1034A00010D1C36A418D03290DD901680969426AA7
:1034B0001170416A491C4162418D491E4185418D0F
:1034C000032906D038BDC26A022A02D0012906D0DB
:1034D00029B10068416821F48061416038BD2A4A01
:1034E00046F2A81400211268B2FBF4F202EB820249
:1034F000009202682024009D6D1E009526D015685C
:10350000AD05F8D4156825F4806515600268556826
:1035100025F4E065556002681269456A2A70426ABE
:10352000521C4262428D521E428580F83D4090F806
:103530003E2080F83E10402A21D0082B02D0202BBC
:1035400000D012210163FEF792FD38BD036C43F0F9
:1035500020030364536823F4E06353600268126934
:10356000436A1A70426A521C4262428D521E428560
:1035700080F83D4080F83E10FEF7B2FC38BD016394
:10358000FEF70EFE38BD00003C000020F8B50446F2
:10359000C06A1E460D461746082807D0012805D0E8
:1035A00010F5803F02D0206B122804D120680168FA
:1035B00041F480710160134600224FF00111204652
:1035C000009600F05BFB40B120680068C00502D5A2
:1035D0004FF4007020640320F8BD2069B0F5804FDF
:1035E0000ED00620216800EAD51040F0F0000861F6
:1035F00033463A460B49204600F088FB78B902E092
:1036000005F0FE0000E0E8B2216808610549334694
:103610003A46891F204600F079FB0028DCD00120C3
:10362000F8BD00000800010010B5C26A90F83D1016
:1036300021290BD1418D51B1416A0268097811618C
:10364000416A491C4162418D491E418510BD2023BC
:103650000021082A13D0202A11D012F5803F0ED065
:103660000268546824F4E06454601122026380F814
:103670003E1080F83D3000BFFEF7FAFC10BD026836
:10368000546824F4E06454600268146844F40074DC
:103690001460016380F83D3090F83E2080F83E10C1
:1036A000402AE9D1FEF77DFD10BD000010B590F86D
:1036B0003D1090F83E30C26A048DB4B1212903D088
:1036C000402B11D122290FD1418DE1B390F83E104A
:1036D000402942D0416A026809781161416A491C57
:1036E0004162418D491E418510BD2129E8D1202329
:1036F0000021082A13D0202A11D012F5803F0ED0C5
:103700000268546824F4E06454601122026380F873
:103710003E1080F83D3000BFFEF7AAFC10BD0268E5
:10372000546824F4E06454600268146844F400743B
:103730001460016380F83D3090F83E2080F83E1020
:10374000402AE9D100E002E0FEF72BFD10BD006841
:10375000416821F48061416010BDBDE8104000F077
:10376000F3B8000078B590F83E50C26A046B90F848
:103770003D6000230168222E73D1066D0EB9402DE5
:103780006FD0056D1DB90569B5F5404F1BD0458D4E
:1037900095B3468D484D012E20D0448D022C4DD03E
:1037A0000C6844F480640C6001684C68240579D589
:1037B000AA4273D0012A71D0082A6FD0102A6DD086
:1037C000202A6BD06EE04A698A6900920A6842F446
:1037D00080720A60016D491C016578BDAA4214D14E
:1037E0000A6822F480620A6001684A68120504D5FA
:1037F0000A6822F4806217E0FFE74A698A6900924A
:103800000A6842F400720A6050E0082A10D0202AA8
:103810000ED0122C0AD0042A03D0022A01D0102A7A
:10382000E6D10A6842F480620A603BE0012ADFD0F8
:103830000A6822F480620A600168DEE7042A11D077
:10384000022A0FD0102A0DD00C6844F400640C60DA
:1038500001684C698C6900940C6824F480640C60E5
:1038600008E025E00C6844F480640C6001684C6951
:103870008969009101684C68240517D5AA4207D0D0
:10388000012A05D0082A03D0102A01D0202A0DD100
:103890004A6842F480524A6008E0FFE74A6842F40E
:1038A00080524A6001684A6989690091036578BD60
:1038B00048698869009078BD0000FFFF90F83E10CD
:1038C000402910D00169B1F5804F19D0016DA9B31D
:1038D000016D012910D1416C5FF0F10201F44071DA
:1038E00042EAD11106E0016D0029416C05D0C9B250
:1038F00041F0010100680161704701F0FE01F9E744
:1039000090F83D102129416C09D0C9B241F0010164
:1039100002681161416B29B1896A49B902E001F07D
:10392000FE01F5E7816B0029E6D0896A0029E3D022
:103930000068416841F4006141607047FFE7416CF5
:10394000F02201F44071CBE710B590F83D10026D04
:103950004AB1026D012A14D0026D022A16D0BDE8C8
:103960001040FFF761BCC16C0129816C02D0C1F32A
:10397000072108E00268C9B21161016D891C016567
:1039800010BD816CC9B20268116123E022291CD0EC
:10399000428D0AB1212920D0428D002AF0D121295F
:1039A000EED101684A6822F4E0624A6001680A6860
:1039B00042F400720A6000210163202280F83D2059
:1039C00080F83E10FEF7EDFB10BD01680A6842F476
:1039D00080720A60016D491CD1E7416A026809786A
:1039E0001161416A491C4162418D491E418510BDEA
:1039F00038B50C4690F83D200021282595430268F3
:103A00000B4605D051699169009180F83C3038BD72
:103A1000556825F480655560E243540700D50121BF
:103A2000120601D5828900E0028B80F83C3092B208
:103A3000FEF7DBF838BD00002DE9F04190F83D308D
:103A40000446C26A002120261E4F00686FF480657C
:103A5000082A01D0202A01D1282B04D0212B17D0ED
:103A60004561BDE8F081E762426822F4E0624260AD
:103A7000206845612068026822F480620260216348
:103A800084F83D6084F83E102046FEF7EFFAE8E740
:103A9000E7622122226384F83D6084F83E10416889
:103AA00021F4E0614160206845612068016821F4EB
:103AB000806101602046FFF7B7FB2046FEF7B1FBAF
:103AC000CFE700000000FFFFF8B590F83D60044626
:103AD0000068416821F4E061416020680025416987
:103AE0000091016841F0010101602068016821F442
:103AF0008061016020684168090520D5474F222E6A
:103B000048D02A2E46D0616B096849686185618D6D
:103B100019B1216C41F004012164416821F4006174
:103B20004160606BFDF7D0FE012808D0606B4763F1
:103B3000606BFDF77BFE10B1606B416B8847608D59
:103B400008B320684169C943490708D40069616A1C
:103B50000870606A401C6062608D401E608520684D
:103B60004169C943490608D40069616A0870606AFE
:103B7000401C6062608D401E6085608D18B1206CB5
:103B800040F004002064206C00B32046BDE8F840FB
:103B9000FFF752BBA16B096849686185618D19B156
:103BA000216C41F004012164416821F4006141600D
:103BB000A06BFDF789FE0128C1D0A06B4763A06B05
:103BC000FDF734FE0028BAD0A06BB6E72A2E06D146
:103BD0002563282084F83D002046FEF721FB94F859
:103BE0003D10202028290DD0216B222901D0222E22
:103BF00007D1256384F83D0084F83E502046FEF747
:103C00000FFBF8BD0649E162256384F83D0084F8A6
:103C10003E502046FEF72AFAF8BD00006D3100083C
:103C20000000FFFF70B516460D4604461EE0204614
:103C3000FFF7AEFB08B1012070BD681C16D0FDF780
:103C4000CDFF801BA84200D885B920684069C043D9
:103C500040070BD5002044F8300F20216173A0737A
:103C6000216941F0200121612073E4E72068406967
:103C7000C0434007DBD4002070BD00002DE9F047B1
:103C8000984617460D460446C1F30746DDF82090D6
:103C90002AE000BFB8F1FF3F26D0FDF79FFFA0EB61
:103CA0000901414502D8B8F1000F1DD12068012E4D
:103CB00016D0806925EA00000004000C12D0002014
:103CC000B84211D1002044F8300F20216173A07355
:103CD000216941F02001216120730120BDE8F087B6
:103CE0004069E7E70120EBE72068012E0AD08069F0
:103CF00025EA00000004000C06D00020B842C9D01C
:103D00000020EBE74069F3E70120F7E72DE9F047F2
:103D1000984616460D4604464FF000094FF0200A1B
:103D2000C1F3074723E020684069C043400515D42C
:103D30002068016841F40071016021686FF48060BF
:103D40004861C4F8309084F83DA084F83E90216C1E
:103D500041F00401216484F83C9021E0701C06D0FD
:103D6000FDF73CFFA0EB0800B04203D816B1012FCD
:103D70001FD021E02068012F15D0806925EA0000BE
:103D80000004000C18D000BF44F8309F84F80DA048
:103D900084F80E90216941F02001216184F80C9093
:103DA0000120BDE8F087406925EA00000004000C0E
:103DB000EAD12068406901E02068806925EA0000B6
:103DC0000004000CAFD1ECE770B516460D46044672
:103DD0001EE02046FFF7DCFA08B1012070BD681C28
:103DE00016D0FDF7FBFE801BA84200D885B92068DD
:103DF0004069C04300060BD5002044F8300F202155
:103E00006173A073216941F0200121612073E4E70F
:103E100020684069C0430006DBD4002070BD00006C
:103E2000FEB5244C102728212770601C00F072F882
:103E300021A3401C0ECB8DE80E0080B22118009A01
:103E40000A60019A4A60BDF808200A300A8180B2EF
:103E500000262654401C80B23A462754401C85B2A6
:103E6000601918A1FCF7BCF91035A8B20522265438
:103E7000401C80B218A12254401C85B26019FCF786
:103E8000AFF96D1DA8B203222654401C80B214A1C4
:103E90002254401C85B26019FCF7A2F9ED1CACB2AB
:103EA00010A001F015F803B02146BDE8F04001482C
:103EB000FDF722BC1001002000044D51545404C2EF
:103EC0000078000073746D33325F646576696365F2
:103ED0005F3030310000000061646D696E000000E9
:103EE000313233005B4D5154545D2053656E64692B
:103EF0006E6720436F6E6E656374205061636B65FF
:103F00007420746F20416C6979756E2E2E2E0D0A07
:103F1000000000000346002001F07F02C9090029CB
:103F200002D000BF42F080021A5400F10100F3D128
:103F3000704700002DE9F04788468146FCF786F976
:103F400085B24046FCF782F986B2A819801C144C51
:103F500081B230202070601CFFF7DCFF401C80B273
:103F6000290A2154401C80B22A462554401C87B29D
:103F7000E0194946FCF734F9781985B260193246E0
:103F80004146FCF72DF9A81984B24246494605A0DE
:103F900000F09EFF2146BDE8F0470148FDF7ACBBAD
:103FA000100500205B4D5154545D205075623A203D
:103FB0002573202D3E2025730D0A00002DE9F041C8
:103FC0000F468046FCF742F985B2681D164C81B257
:103FD000822020700126601CFFF79CFF401C80B2ED
:103FE00000212154401C80B2290A2654401C80B272
:103FF0002A462154401C80B241462554401C86B2BA
:10400000A019FCF7EDF8701980B23A462754401C0D
:1040100084B2414605A000F05BFF2146BDE8F041B7
:104020000148FDF769BB0000100300205B4D5154AF
:10403000545D205375627363726962696E672074A0
:104040006F3A2025732028516F533A202564290D9B
:104050000A0000002DE9FC413B4A00213B4801F0E9
:104060007DFD3B4C00221C2160600A2002F0C1FD56
:10407000A06000221C21012002F0BBFDE0600022B4
:104080001C21012002F0B5FD206100221C2101202D
:1040900002F0AFFD6061A168002951D0E1680029FC
:1040A0004ED0216900294BD0002849D04FF48C71A3
:1040B00028A000F00DFF1C2132A000F009FF1C21F8
:1040C0003BA000F005FF1C2145A000F001FF37A038
:1040D00000F0FEFE00242025CDE900542346802276
:1040E0004AA14D4803F00EF9CDE900540023802287
:1040F0004AA14D4803F006F9CDE90054002380227F
:104100004AA14E4803F0FEF81826CDE90064EF00FE
:1041100000233A464AA14D4803F0F4F8CDE9006483
:1041200000232A014AA14D4803F0ECF8CDE90054E0
:1041300000233A464AA14D4803F0E4F8BDE8FC816B
:104140004BA000F0C5FEC2E7C88000088149000806
:10415000140000207851756575657353656E736F33
:10416000722043726561746520737563636565646D
:10417000212C73697A65206973203A2025640D0A21
:104180000000000078517565756544485431312050
:104190004372656174652073756363656564212C82
:1041A00073697A65206973203A2025640D0A00003E
:1041B0007851756575654453313842323020437209
:1041C000656174652073756363656564212C73692B
:1041D0007A65206973203A2025640D0A00000000EA
:1041E000785175657565505A454D20437265617407
:1041F000652073756363656564212C73697A652036
:104200006973203A2025640D0A0000006468743147
:10421000315461736B000000C15800086473313879
:104220006232305461736B0081590008707A656D99
:10423000303034745461736B00000000AD640008CA
:104240005072696E745461736B00000095470008EA
:10425000657370383236365461736B009977000895
:104260006D71747452785461736B0000DD6A0008DC
:10427000517565756573204372656174696F6E2051
:104280004661696C6564210D0A0000002DE9F04764
:1042900086B000242D48009401940294039481690F
:1042A00041F010018161816901F01001049181697F
:1042B00041F020018161816901F02001049181694F
:1042C00041F004018161816901F004010491816977
:1042D00041F0080181618069DFF8748000F0080016
:1042E0004FF400550490002229464046FDF771FC2A
:1042F000DFF860904FF4C177002239464846FDF759
:1043000068FCDFF854A0002208215046FDF761FC4C
:104310000095022601250396CDE9015469464046E1
:10432000FDF762FB00970396CDE9015469464846C4
:10433000FDF75AFB0820CDE90005CDE902466946A4
:104340005046FDF751FB06B0BDE8F0870010024073
:104350000010014000080140000C01400D4810B55C
:104360000B4901600C49416000214FF4804281609B
:10437000C0E9031241618161C1610162FDF7B2FDD3
:10438000002803D0BDE81040FDF72ABA10BD000098
:104390000054004034090020A086010010B586B00A
:1043A0000024174800940194029403940494134940
:1043B000059401604721C0E901144FF6FF71C0E97F
:1043C000031444618461FEF795FA08B1FDF708FA19
:1043D0004FF48050009069460948FEF7CDFA08B1C5
:1043E000FDF7FEF9049404A905480594FEF74EFA7A
:1043F000002801D0FDF7F4F906B010BD002C0140F3
:10440000880900200C4810B50A4901604FF4E131D9
:104410004160002181600C22C160C0E90412816109
:10442000C161FEF7F1FC002803D0BDE81040FDF7A4
:10443000D7B910BD00380140D00900200C4810B594
:104440000A4901604FF4E1314160002181600C2292
:10445000C160C0E904128161C161FEF7D5FC00288A
:1044600003D0BDE81040FDF7BBB910BD00440040CB
:10447000180A00200C4810B50A4901604FF4165183
:104480004160002181600C22C160C0E90412816199
:10449000C161FEF7B9FC002803D0BDE81040FDF76C
:1044A0009FB910BD00480040600A0020FEE7FEE70B
:1044B00070B5002404F1B000C0B200F0CDF80020C7
:1044C00000F0CAF8102000F0C7F80025002000F026
:1044D000D5F86D1CEDB2802DF8D3641CE4B2082C25
:1044E000E8D370BD10B5C82002F08AF9AE2000F004
:1044F000B3F8202000F0B0F8022000F0ADF8B020B2
:1045000000F0AAF8C82000F0A7F8002000F0A4F8F6
:10451000102000F0A1F8402000F09EF8812000F06B
:104520009BF8FF2000F098F8A12000F095F8A62055
:1045300000F092F8A82000F08FF83F2000F08CF8EF
:10454000A42000F089F8D32000F086F8002000F0C5
:1045500083F8D52000F080F8F02000F07DF8D92015
:1045600000F07AF8222000F077F8DA2000F074F8F2
:10457000122000F071F8DB2000F06EF8202000F02F
:104580006BF88D2000F068F8142000F065F8AF207B
:1045900000F062F8BDE81040FFF78ABF10B504468E
:1045A000B031C8B200F058F8102040EA141000F002
:1045B00053F804F00F00BDE8104000F04DB80000C3
:1045C0002DE9F041203A00240D468046D7B27828E4
:1045D00003D900208D1C8046EDB22946FFF7DEFF8F
:1045E0000E4E00BF04EB0710305C00F047F8641C6F
:1045F000E4B2082CF6D36D1CE9B24046FFF7CEFFBB
:104600005FF0000404EB07103044007A00F036F845
:10461000641CE4B2082CF5D3BDE8F081987A000858
:104620002DE9F041984617460E46044600250DE058
:10463000434631462046FFF7C3FF0834E4B2782CE6
:1046400002D90024B61CF6B26D1CEDB27A5D002AC8
:10465000EED1BDE8F08100001CB500218DF80410FA
:104660008DF8050064200090022301AA78210248F9
:10467000FDF700FD1CBD0000340900201CB54021E1
:104680008DF804108DF8050064200090022301AA23
:1046900078210248FDF7EEFC1CBD00003409002023
:1046A00010B5064C60602068002805D10322002167
:1046B000012002F09EFA206010BD000008000020DA
:1046C000F8B52E4C05460021206802F025FD192280
:1046D0002B496068FEF7A0FCD8B964230822294959
:1046E0006068FEF7E5FCC821206802F015FD01288E
:1046F00008D06068FEF7AFF960680068016840683C
:10470000009006E01E4C2078012802D16078042831
:1047100001D00020F8BDB4F80300641D40BAFBF7D7
:104720004AFE194E3146FBF7FDFD2860206840BA6D
:10473000FBF741FE1549FBF7F5FD6860606840BA7C
:10474000FBF739FE3146FBF7EDFDA860A06840BAE3
:10475000FBF731FEE860A08940BAFBF72CFE31463A
:10476000FBF7E0FD2861E08940BAFBF724FE084929
:10477000FBF7D8FD68610120F8BD000008000020AB
:10478000D8000020907A0008CDCCCC3D6F12833A3F
:104790000AD7233C8AB03BA000F09AFB3E4C3F4F27
:1047A0004FF0FF38424602A9B86802F019FC012810
:1047B000F8D19DF8080010B1022803D008E0039951
:1047C000E16005E003992160049961600599A160A9
:1047D00039780129E6D100283AD0012848D00228AA
:1047E000E0D12FA000F074FB0398FBF713FE024604
:1047F0000B4630A000F06CFB0498FBF70BFE024662
:104800000B4631A000F064FB0598FBF703FE02465F
:104810000B4632A000F05CFB0698FBF7FBFD02465E
:104820000B4633A000F054FB0798FBF7F3FD02465C
:104830000B4634A000F04CFB0898FBF7EBFD02465A
:104840000B4635A000F044FB37A000F041FBA9E780
:104850000498FBF7DFFD05460E460398FBF7DAFDEB
:10486000CDE9005602460B4634A000F031FB99E733
:104870000398FBF7CFFD02460B463AA000F028FB59
:1048800090E700005072696E745461736B2052653A
:104890006164792E0D0A0000100900201400002028
:1048A0003D3D3D20505A454D2D30303454203D3D46
:1048B0003D0D0A0020566F6C7420203A20252E31C1
:1048C0006620560D0A000000204375727220203ABF
:1048D00020252E336620410D0A00000020506F77FE
:1048E0006572203A20252E316620570D0A000000FF
:1048F00020456E657267793A20252E30662057680C
:104900000D0A0000204672657120203A20252E31C4
:104910006620487A0D0A0000205046202020203AC8
:1049200020252E32660D0A003D3D3D3D3D3D3D3D7D
:104930003D3D3D3D3D3D3D3D3D0D0A005B44485400
:1049400031315D20202054656D703A20252E31666E
:1049500020432C2048756D693A20252E316620258C
:10496000250D0A005B445331384232305D205465D6
:104970006D703A20252E326620430D0A000000009B
:10498000FFF7B0FDFFF794FDDFF8F8A0DFF8F8803F
:104990004FF00A0BDAE90154DAF80060DAF80C702B
:1049A0003046FBF71EFD814641463046FBF7BAFC18
:1049B000FBF717FD5E4690FBF6F10BFB1103314848
:1049C0004A4632A1103000F093FA2E4A00211023FB
:1049D00010320846FFF724FE2846FBF702FD814609
:1049E0002E492846FBF79EFCFBF7FBFC642190FB5D
:1049F000F1F201FB120323484A4629A1103000F0CE
:104A000077FA204A1023103202210020FFF708FE17
:104A10002046FBF7E6FC054641462046FBF782FCB4
:104A2000FBF7DFFC90FBF6F106FB110315482A4665
:104A30001FA1103000F05CFA124A1023103204213A
:104A40000020FFF7EDFD3846FBF7CBFC044641465E
:104A50003846FBF767FCFBF7C4FC90FBF6F106FB5E
:104A600011030848224615A1103000F041FA054A0A
:104A70001023103206210020FFF7D2FD642001F040
:104A8000BFFE87E71009002000002041563A20258C
:104A9000642E256420562020202000000000C842FB
:104AA000493A2025642E2530326420412020200000
:104AB000453A2025642E256420572000543A2025AD
:104AC000642E2564204320202000000010B5FDF74F
:104AD000A9FB02F06FFC012803D0BDE8104002F0F2
:104AE00067B810BD30B58FB028216846FBF791FB41
:104AF00014210AA8FBF78DFB01210804CDE9001061
:104B00000024029402250491CDE907504FF4E010EF
:104B100009906846FDF716FD08B172B6FEE70F2052
:104B2000CDE90A054FF48060CDE90C4002210AA8C6
:104B30000E94FDF725FC002801D072B6FEE70FB0F9
:104B400030BD7047F0B50268194B1A4C1A4D4FF042
:104B50008047984205D0B84203D0A04201D0A84275
:104B600003D122F070064A683243984205D0B84219
:104B700003D0A04201D0A84203D122F44074CA68F5
:104B800022434C6922F08002224302608A68C2629A
:104B90000A688262984201D1096901630121416179
:104BA0000169C90703D0016921F001010161F0BD6C
:104BB000002C0140000400400008004010B584684B
:104BC00042EA032224F47F440A432243826010BD58
:104BD000826822F070020A4342F007018160704748
:104BE00010B5036A046A24F001040462846924F0A5
:104BF000F00444EA021423F00A020A4384610262C8
:104C000010BD10B5036A046A24F0100404628469BC
:104C100023F0A00324F4704444EA023243EA011171
:104C20008261016210BD10B5406A0021C185C18456
:104C3000FDF776FF10BD01680C3151E8002F22F41A
:104C4000907241E80023002BF5D10168143151E83E
:104C5000002F22F0010241E80023002BF5D1016B67
:104C6000012909D101680C3151E8002F22F010020E
:104C700041E80023002BF5D1202180F842100021CB
:104C80000163704708B590F84210222901D0022034
:104C900008BD82684FF480539A4201D1016921B165
:104CA000816A9A421BD04AB10AE00268816A52685E
:104CB000C2F308020A80816A891C08E0026972B1A5
:104CC0000268526802F07F020A70816A491C8162A0
:104CD000C18D491E0904090CC18503D01BE002687F
:104CE0005268F1E70168CA6822F02002CA600168D0
:104CF000CA6822F48072CA6001684A6922F001021F
:104D00004A61202180F8421000214163026B012A90
:104D100003D0FEF78FF9002008BD016301680C3154
:104D200051E8002F22F0100241E80023002BF5D1BA
:104D300001680A68D20602D50A6849680091818D27
:104D4000FDF788FEE7E7000070B5044600680169DA
:104D5000E26821F44051114301612169A0680843D0
:104D6000616908432168CA6841F20C639A430243AF
:104D7000CA6020684169A26921F440711143416110
:104D80001E492068884202D1FDF7A6FB01E0FDF72D
:104D900093FB00EBC00101EB00126068642180000E
:104DA000B2FBF0F3B3FBF1F36FF018067343B2FB01
:104DB000F0F5B2FBF0F605EB8305322303EB0515A6
:104DC000B5FBF1F5B6FBF1F605F0F00505EB0615C0
:104DD000B2FBF0F6B2FBF0F0B0FBF1F06FF01802AE
:104DE000504306EB800003EB0010B0FBF1F02168AC
:104DF00000F00F002844886070BD000000380140BA
:104E000081628285C28500214164222180F842109E
:104E1000016921B10168CA6842F48072CA60016800
:104E20004A6942F001024A610068C16841F020010C
:104E3000C160002070472DE9F843984617460D469B
:104E40000446089E24E0701C22D0FCF7C7FEA0EBAD
:104E50000800B0421AD8CEB12068C168490717D5FA
:104E6000802D15D0402D13D00168C94309070FD4F8
:104E700001680025406800902046FFF7DCFE08200E
:104E8000606484F840500120BDE8F8830320FBE70C
:104E90002068006835EA000004D00020B842D2D073
:104EA0000020F1E70120F9E70148FDF777BE000097
:104EB000D00900200148FDF771BE0000180A00204B
:104EC0000148FDF76BBE0000600A0020FEE700000D
:104ED0000FB4054B10B503A9044A029800F002F97B
:104EE00010BC5DF814FB0000095A0008C000002047
:104EF0000FB4084B10B504A902AA039800F0F2F809
:104F0000044602A9002000F070FC204610BC5DF8A9
:104F100014FB0000EB5700080907090E002804DB0A
:104F200000F1E02080F80014704700F00F0000F15D
:104F3000E02080F8141D704700487047C40000202E
:104F400002E008C8121F08C1002AFAD17047704752
:104F5000002001E001C1121F002AFBD170470000B0
:104F60002DE9FF5F82B00021DDE90430020DDDF89C
:104F700040B0034318D044F61050A2F2FF3242432F
:104F80001514119801281FD0A5EB0B00401C5FEAF7
:104F9000000A4FF000064E4FDFF83891B0465046F9
:104FA00015D5CAF1000413E0119801244AA3012881
:104FB00001D16FEA0B010298119AC0E90031C0E9F2
:104FC000024206B0BDE8F09FCBF10000DFE70446E7
:104FD0000021404A491842EB0450CDE9001012E08C
:104FE000E00707D032463B4640464946FBF7FBFB0D
:104FF0008046894632463B4610461946FBF7F3FB8E
:1050000006460F466410002CEAD1DDE90401DDE913
:105010000023BAF1000F06DAFBF7E5FB42464B46E8
:10502000FBF7E1FB05E0FBF750FC42464B46FBF784
:105030004CFC04460E460022284BFBF7CDFC03D85F
:105040004FF0FF30014607E00022254B2046314655
:10505000FBF722FBFBF7A8FC102409E0002C0ADB7D
:105060000A220023FBF71BFA039B30321A55641EF9
:1050700050EA0102F2D1641C039AC4F111031444F2
:10508000119A012A03D0012208430DD10AE00843F6
:1050900004D000204FF0110B119072E7A3EB0B0529
:1050A0006D1E0DE05B4504DD4FF0000205F10105CA
:1050B00004E003DA4FF00002A5F10105002AECD06C
:1050C00002981199C0E90231C0E9004579E7000072
:1050D000000014400000F03F300000000000F043EA
:1050E0000000E03F2DE9FF4F95B09A4688460646FE
:1050F0000025EEE1252877D100242746F94A012131
:10510000039400E0044316F8013F203B01FA03F04A
:105110001042F7D130782A2811D06FF02F03307861
:10512000A0F13002092A16D8039A44F0020402EBD7
:10513000820203EB42021044761C0390EFE758F81A
:10514000042B0392002A03DA504244F400540390E3
:1051500044F00204761C30782E2816D116F8010F80
:1051600044F004042A280DD06FF02F023078A0F10B
:105170003003092B09D807EB870302EB4303C71859
:10518000761CF3E758F8047B761C30786C280FD037
:1051900006DC4C2817D068280DD06A2814D104E00A
:1051A000742810D07A280FD10DE044F400140AE0DE
:1051B00044F4801401E044F440147278824202D135
:1051C00004F58014761C761C307866280BD013DC2E
:1051D000582877D009DC002875D04528F6D0462815
:1051E000F4D047281AD193E118E0632835D0642819
:1051F00079D0652812D18BE1702873D008DC67283C
:10520000F1D069286FD06E280DD06F2806D1ACE0A0
:1052100073282CD0752874D0782853D0524617990B
:1052200090476D1C54E1C4F30250022809D00328B2
:105230000DD0D8F8001004280DD00D6008F1040836
:1052400046E1D8F80010EA17C1E90052F6E7D8F8AD
:1052500000100D80F2E70D70F0E718F8041B8DF8D0
:10526000001000208DF80100EB46012003E058F803
:1052700004BB4FF0FF3061074FF0000102D40DE096
:1052800009F101018946B9420FDA8145F8DB1BF8C3
:1052900009100029F4D108E009F101018946814291
:1052A000FADB1BF809100029F6D103985346A0EB4E
:1052B000090721463846179A00F080FA284400EB87
:1052C000090507E044E008E10DE01BF8010B524638
:1052D00017999047B9F10109F7D25346214638464C
:1052E000179AF2E039E00A21C4F302524FF0000BA2
:1052F0000091022A06D058F8040BC117032A09D0DE
:105300000AE023E008F1070020F00702F2E80201BA
:10531000904605E000B2C117042A01D140B2C1177E
:10532000002906DA0A460021404261EB02012D22E3
:1053300002E0220504D52B228DF80420012203E08F
:10534000E20701D02022F7E7914657E00A2100E06A
:1053500010214FF0000B00910BE010214FF0000BDB
:1053600044F004040827009103E008204FF0000BEC
:105370000090C4F30252022A05D058F8040B002111
:10538000032A08D008E008F1070020F00702F2E83D
:105390000201904603E080B2042A00D1C0B24FF06F
:1053A000000922072AD53278702A07D0DDF800C01C
:1053B0008CF0100C5CEA0B0C05D00EE040228DF84E
:1053C0000420012208E050EA010306D030238DF8C2
:1053D00004308DF8052002229146009B83F00803DB
:1053E00053EA0B030AD150EA010201D1620705D545
:1053F00030228DF804204FF001097F1E3278582AA0
:1054000004D039A20C920CAA02920BE03BA2F9E75D
:105410005B46009AFBF743F80C9B9B5C029A521E7A
:105420000292137050EA0102F2D1029804A9081AFC
:1054300000F1200B600702D524F4803400E001273E
:105440005F4502DDA7EB0B0000E0002000EB0B0145
:10545000009003984944401A0390E00306D4534651
:105460002146179A039800F0A9F90544002706E0A1
:1054700001A85246C05D179990476D1C7F1C4F458F
:10548000F6DBE0030CD553462146179A039800F04B
:1054900095F9054404E030205246179990476D1C59
:1054A0000099481E00900029F5DC08E00298029956
:1054B00052460078491C0291179990476D1CBBF128
:1054C0000001ABF1010BF1DC5BE100F065F9054493
:1054D000761C307800287FF40DAE19B02846BDE860
:1054E000F08F00000928010030313233343536376F
:1054F0003839616263646566000000003031323320
:1055000034353637383941424344454600000000BF
:10551000600700D4062708F1070020F00700F0E834
:105520000223804603F0004C5FEA0C0001D097A0F4
:1055300009E0200501D596A005E0E00701D095A07F
:1055400001E0AFF24C001390307823F0004365285F
:105550000CD006DC452809D046281DD047287FD12D
:105560003BE0662818D067287AD136E00021112F59
:1055700001DB112000E0781CCDE9000104A90CA892
:10558000FFF7EEFCDDE90D010C9A4FF0000B07F17F
:105590000109109200914EE04FF000400097CDE9D4
:1055A000011004A90CA8FFF7DBFCDDE90D020C9B40
:1055B0000F994FF0000B91461093009211B9791C8E
:1055C00000EB0109B7EB090003D4C0F1FF3B07F181
:1055D0000109A9EB0700019042E0012F00DA012741
:1055E0000021112F01DD112000E03846CDE9000136
:1055F00004A90CA8FFF7B4FCDDE90D010C9A009199
:105600004FF0000BB946109221070FD4009A4A457B
:1056100003DA914601E0A9F10109B9F1010F05DDB5
:10562000109AA9F10101515C3029F4D0B84202DA94
:1056300010F1040F03DA0121CDE9011010E0002878
:1056400003DC8344A9EB000102E0411C494500DD75
:105650008946A0EB0B00401C01904FF000400290E7
:10566000200705D40198484502DB4FF0FF30019038
:1056700000208DF84B0002980DF14B07B0F1004F60
:1056800025D002200C902B200D90029800280CDAD7
:10569000404202902D200D9007E00A210298FAF76F
:1056A000E8FE3031029007F8011D0C99481E0C905D
:1056B0000029F2DC02980028EFD1791E0D980870BD
:1056C000307800F0200040F0450007F8020D11A8E6
:1056D000C01BC01D02901398007800B1012000EBA0
:1056E0000901019801EBE071029801440398401A06
:1056F000401E0390E00306D453462146179A0398B0
:1057000000F05CF805441398007818B152461799D8
:1057100090476D1CE00323D553462146179A039802
:1057200000F04CF805441BE0BBF1000F07DB0098CC
:10573000584504DD1098179910F80B0001E01799EF
:1057400030205246904701980BF1010B401E05F1A5
:105750000105019004D12E205246179990476D1CE7
:10576000B9F10001A9F10109DEDC05E017F8010B30
:105770005246179990476D1C0299481E02900029C5
:10578000F4DC53462146179A03989EE62D0000004C
:105790002B000000200000002DE9F0410446002508
:1057A0001E461746880404D405E039462020B04739
:1057B0006D1C641EF9D52846BDE8F0812DE9F04145
:1057C000044600251E469046C80301D5302700E058
:1057D0002027880404D505E041463846B0476D1CB3
:1057E000641EF9D52846BDE8F0810A68531C0B6099
:1057F0001070704770B501220A4D540321462846A7
:10580000FCF7E7F94FF4FA66304600F0F9FF0022A2
:1058100021462846FCF7DDF93046BDE8704000F02F
:10582000EFBF00000010014070B50122124D54037B
:1058300021462846FCF7CDF94FF4FA66304600F0D1
:10584000DFFF002221462846FCF7C3F9304600F06E
:10585000D7FF012221462846FCF7BBF9304600F06D
:10586000CFFF002221462846FCF7B3F93046BDE8B9
:10587000704000F0C5BF00000010014010B5074C9B
:1058800000224FF480712046FCF7A3F92046002245
:10589000BDE810408021FCF79CB9000000080140E1
:1058A00010B5064C012211022046FCF792F9204661
:1058B0000122BDE810408021FCF78BB900080140AF
:1058C00088B000208DF80000FBF716FA0120FBF7E6
:1058D00031F917A0FFF7FCFA1B4C1C4D1C4E4FF47E
:1058E000FA6700BFFBF740F900B3A06810F0FF4F64
:1058F00003D1E16811F0FF4F11D00190E0680290F0
:10590000286820B100231A46694601F00BFA306876
:1059100040B102230022694601F004FA02E00DA022
:10592000FFF7D6FA384600F06BFFDBE70FA0F7E78A
:105930004448543131205461736B20537461727444
:105940006564210D0A000000C80000201C00002032
:10595000200000204448543131205A65726F205293
:10596000656164696E670D0A0000000044485431A7
:10597000312052656164204661696C65640D0A00DE
:1059800088B001208DF80000FBF738FA13A0FFF76C
:105990009FFA184E184F194C194DDFF8688040F2E5
:1059A000DC5900BFFBF704FA2060B04211D2B842C4
:1059B0000FDA0190286820B100231A46694601F0E9
:1059C000B1F9D8F8000020B102230022694601F0A5
:1059D000A9F9484600F014FFE4E7000044533138C9
:1059E000423230205461736B205374617274656469
:1059F000210D0A00000048C20000164300000020EC
:105A00001C0000202400002013B54FF6FF73012274
:105A100069460248FDF74CFB00981CBDD0090020E8
:105A2000FCF708FCFFF75EF8FEF730FCFEF796FC8B
:105A3000FEF7E8FCFEF7B2FCFEF71CFDFEF7FEFCED
:105A4000FFF72EFF06A0FFF743FA0AA0FFF740FA80
:105A500000F056F8FEF7FEFA00F064F8FEE70000EA
:105A60006672656572746F7320696E6974204F4B3E
:105A7000210D0A000D0A000070B50122124D5403D9
:105A800021462846FCF7A5F84FF47A76304600F018
:105A9000B7FE002221462846FCF79BF8304600F06E
:105AA000AFFE012221462846FCF793F8304600F06D
:105AB000A7FE002221462846FCF78BF83046BDE8B9
:105AC000704000F09DBE00000010014070B5012242
:105AD0000A4D540321462846FCF77BF84FF47A76AA
